:10000000E8C002C101C100C1FFC0FEC0FDC0FCC00C
:10001000FBC051CCF9C0F8C0F7C0F6C0F5C0F4C0C1
:10002000F3C0F2C0F1C00C0E0703C3E77E3C3C3EB8
:10003000373331303030000406FFFF00000000305D
:10004000303F3F303000FE0101010101010101019B
:100050000101010101FE7F8080808080808080809E
:1000600080808080807FFE010D1D3971E1C1C1E17A
:1000700071391D0D01FE7F80B0B89C8E8783838708
:100080008E9CB8B0807FFE01C1F139190D0D0D0DA8
:100090001939F1C101FE7F80838F9C98B0B0B0B058
:1000A000989C8F83807F000000000000005F0000AC
:1000B0000007000700147F147F14242A7F2A1223CC
:1000C0001308646236495522500005030000001CE5
:1000D0002241000041221C0014083E081408083E7A
:1000E0000808005030000008080808080060600098
:1000F0000020100804023E4141413E0004027F00FE
:1001000042615149462241414936181412117F4734
:10011000454545393E49494932010161190736498A
:10012000494936264949493E0036360000005636D0
:100130000000081422410014141414140041221465
:10014000080201510906324979413E7C1211127CA4
:100150007F49494E303E414141227F4141221C7F2F
:10016000494949417F090909013E415151327F08FE
:1001700008087F00417F41002040413F017F081473
:1001800022417F404040407F0204027F7F040810EC
:100190007F3E4141413E7E1111110E3E4151617E33
:1001A0007E1111214E264949493201017F01013F4B
:1001B0004040403F0F3040300F3F4030403F6314DD
:1001C000081463030478040300000000000000002A
:1001D000000011241FBECFE5D4E0DEBFCDBF10E08C
:1001E000A0E6B0E0ECEDFFE102C005900D92AC3767
:1001F000B107D9F720E0ACE7B0E001C01D92A23909
:10020000B207E1F783DBE8CEFBCE2FEF89E698E17A
:10021000215080409040E1F700C00000EFE7F0E09F
:100220001182108213821282158214821782168222
:1002300011861086138612861586148617861686F2
:10024000118A108A89E08093610081E080936000C8
:100250000895AF92BF92CF92DF92EF92FF920F93E9
:100260001F93CF93DF9300D000D01F92CDB7DEB79E
:100270007C015B01AA0CBB1C6A01CC0CDD1CCC0C04
:10028000DD1CCC0CDD1CCC0CDD1C81E2C80ED11CAD
:10029000B601C501019788DBEE0CFF1CEE0CFF1CBC
:1002A000EE0CFF1CEE0CFF1CEE0CFF1C00E010E03F
:1002B00006C00031110519F4B601C50175DBF8015E
:1002C000EE0DFF1DEA5BFF4F849161E070E090E06E
:1002D0002DDB0F5F1F4F0032110559F780917E0013
:1002E0001F928F9302E610E01F930F93FE01319649
:1002F0007F01FF93EF93AADB61E070E081E090E083
:1003000053DB898190E07ADB8A8190E077DB80E2C1
:1003100089839DE29A8390E29B831C8290E06EDB4E
:100320008A8190E06BDB8B8190E068DB80917D00BF
:100330001F928F931F930F93FF92EF9287DB898118
:1003400090E05CDB8A8190E059DB0FB6F894DEBF69
:100350000FBECDBF809160008823A9F164E170E0F9
:1003600083E090E021DB06E310E00F2EFEE3EF2EAA
:10037000F0E0FF2EF02DF801849161E070E0082E8E
:10038000000C990BD3DA0F5F1F4F0E151F0599F75D
:1003900064E170E084E090E007DB0EE310E00F2EF4
:1003A000F6E4EF2EF0E0FF2EF02DF801849161E0ED
:1003B00070E0082E000C990BB9DA0F5F1F4F0E1575
:1003C0001F0599F734C064E170E083E090E0ECDA57
:1003D00006E210E00F2EFEE2EF2EF0E0FF2EF02DF1
:1003E000F801849161E070E0082E000C990B9EDA10
:1003F0000F5F1F4F0E151F0599F764E170E084E051
:1004000090E0D2DA0EE210E00F2EF6E3EF2EF0E0ED
:10041000FF2EF02DF801849161E070E0082E000CB1
:10042000990B84DA0F5F1F4F0E151F0599F70F9078
:100430000F900F900F900F90DF91CF911F910F9120
:10044000FF90EF90DF90CF90BF90AF900895AF9264
:10045000BF92CF92DF92EF92FF920F931F93CF93B1
:10046000DF930F2EFFE7CF2EF0E0DF2EF02DEE24EE
:10047000E394F12CAA24A394B12C15C0AE01B701CA
:10048000F801819191918F01E4DE2196C430D1056C
:10049000A9F7FFEFEF1AFF0A86E0C80ED11CE4E0CF
:1004A000EE16F10421F08601CA2DDB2DE7CFDF9196
:1004B000CF911F910F91FF90EF90DF90CF90BF9061
:1004C000AF900895EF92FF920F931F93CF93DF9316
:1004D000CDB7DEB72B970FB6F894DEBF0FBECDBFFA
:1004E0008C0181E080937C0099B79E7F99BFAFDF3C
:1004F0002FEF89E698E1215080409040E1F700C05D
:10050000000069DA01151105F1F466E270E084E09B
:1005100090E04ADA85E0E7E6F0E0DE01119601902E
:100520000D928A95E1F78E010F5F1F4F7E01E5E086
:10053000EE0EF11CF80181918F0190E05FDA0E154B
:100540001F05C1F77BC00130110509F03AC0809149
:100550007E008F5F80937E0060E570E082E090E037
:1005600023DA06E310E00F2EFEE3EF2EF0E0FF2E7D
:10057000F02DF801849161E070E0082E000C990BD9
:10058000D5D90F5F1F4F0E151F0599F760E570E075
:1005900083E090E009DA0EE310E00F2EF6E4EF2E90
:1005A000F0E0FF2EF02DF801849161E070E0082E5C
:1005B000000C990BBBD90F5F1F4F0E151F0599F744
:1005C0003DC00230110509F039C080917D008F5F78
:1005D00080937D0060E570E082E090E0E5D906E27E
:1005E00010E00F2EFEE2EF2EF0E0FF2EF02DF801CE
:1005F000849161E070E0082E000C990B97D90F5F91
:100600001F4F0E151F0599F760E570E083E090E03D
:10061000CBD90EE210E00F2EF6E3EF2EF0E0FF2E26
:10062000F02DF801849161E070E0082E000C990B28
:100630007DD90F5F1F4F0E151F0599F7E6DDFFEF00
:1006400023ED80E3F15020408040E1F700C000003E
:10065000C2D989B7816089BF2B960FB6F894DEBFE7
:100660000FBECDBFDF91CF911F910F91FF90EF9003
:1006700008950F931F93CF93DF93EC0106970CF02F
:10068000E2C051E080917F0090918000019709F0D5
:1006900050E0F1E08091850090918600019709F08B
:1006A000F0E071E080918B0090918C00019709F04F
:1006B00070E021E08091810090918200019709F023
:1006C00020E0A1E08091870090918800019709F0D7
:1006D000A0E091E000918D0010918E000130110595
:1006E00009F090E061E000918300109184000130F6
:1006F000110509F060E041E00091890010918A0045
:100700000130110509F040E031E000918F001091B7
:1007100090000130110509F030E08A2F8223E82F84
:10072000E9238F2F852387238E2BE42FE623E323D2
:100730008E2B25232623282BFA234F23242B972384
:100740009323922B5A233523932B19F47A2367236F
:1007500019F081E090E0B6DE41E080917F00909159
:100760008000029709F040E0F1E0809185009091CF
:100770008600029709F0F0E061E080918B00909193
:100780008C00029709F060E021E080918100909157
:100790008200029709F020E0A1E08091870090910B
:1007A0008800029709F0A0E091E000918D0010917F
:1007B0008E000230110509F090E051E000918300B5
:1007C000109184000230110509F050E031E00091F1
:1007D000890010918A000230110509F030E081E0B3
:1007E00000918F00109190000230110509F080E017
:1007F0007A2F7223E72FE9237F2F742376237E2B12
:10080000E32FE523E8237E2B24232523272BFA231C
:100810003F23232B96239823922B4A238423982B20
:1008200019F46A23562319F082E090E04BDE8091A0
:100830007C00882319F010927C0005C0CD2B19F4A0
:1008400080E090E03FDEDF91CF911F910F910895FE
:10085000CF92DF92EF92FF920F931F93CF93DF938C
:10086000CDB7DEB72A970FB6F894DEBF0FBECDBF67
:100870002FEF89E698E1215080409040E1F700C0D9
:1008800000006AE070E082E090E08ED888E0ECE65C
:10089000F0E0DE01119601900D928A95E1F7FE01DC
:1008A00031967F016E01F8E0CF0ED11C8701F8016F
:1008B00081918F0190E0A2D80C151D05C1F76AE067
:1008C00070E084E090E070D888E0E4E7F0E0DE01DA
:1008D000119601900D928A95E1F7F70181917F01C0
:1008E00090E08CD8EC14FD04C1F7A8D781309105B5
:1008F00021F481E08093910004C00297B1F7109237
:1009000091002A960FB6F894DEBF0FBECDBFDF91DF
:10091000CF911F910F91FF90EF90DF90CF900895AE
:100920004F925F926F927F928F929F92AF92BF92FF
:10093000CF92DF92EF92FF920F931F93CF93DF93AB
:10094000EC01209191008091600091E09827291797
:1009500008F0D0C6C0917F00D091800091E0C230F5
:10096000D10509F090E0EFE7F0E02681378144857A
:10097000558581E02230310509F080E0892361E06E
:100980004115510509F060E0A82EA62291F0EFE78D
:10099000F0E082E090E095878487A681B781BB2450
:1009A000B394A230B10509F0B12C42E050E081E0EF
:1009B00049C0AA24A3944230510509F0A12C81E03A
:1009C000232B09F080E0B82EB922BA20A9F0EFE776
:1009D000F0E082E090E0978386832281338191E08A
:1009E0002230310509F090E0609187007091880015
:1009F000A2E0B0E081E05AC0A0918500B0918600ED
:100A0000BB24B394A230B10509F0B12CAA20C9F0DF
:100A100081E0CD2B09F080E08B2199F0EFE7F0E049
:100A200082E090E091838083228133810684F78580
:100A3000E02D99249394E230F10509F0912C81E0A6
:100A400055C080E0209181003091820091E02230F9
:100A5000310509F090E06091870070918800E1E035
:100A60006230710509F0E0E0FE2FF923E1E0C0916A
:100A70008D00D0918E00CD2B09F0E0E0EF238E1792
:100A8000A8F4EFE7F0E082E090E097878687C084E3
:100A9000D1848824839462E0C616D10409F0812CA5
:100AA00099249394E2E0F0E081E047C0E0918D006A
:100AB000F0918E0099249394E230F10509F0912C85
:100AC0009921C1E0672B09F0C0E09C23891770F4DD
:100AD00082E090E09093880080938700882483943C
:100AE0006894CC24C1F8D12C81E027C0C090870045
:100AF000D09088008824839492E0C916D10409F02C
:100B0000812C692D682191E0232B09F090E0962338
:100B1000891798F4CFE7D0E082E090E09B838A8346
:100B20002C813D8191E02230310509F090E0609107
:100B3000890070918A0081E02EC02091830030915D
:100B4000840091E02230310509F090E06091890045
:100B500070918A00C1E06230710509F0C0E01C2F7D
:100B6000192301E0C0918F00D0919000CD2B09F0A6
:100B700000E0C12FC0238C1770F482E090E09093C6
:100B8000900080938F00FF24F3946894442441F8EC
:100B9000512C81E01DC040908F0050909000FF24A8
:100BA000F394C2E04C16510409F0F12C9F2111E09E
:100BB000672B09F010E09123891750F482E090E050
:100BC00090938A008093890002E010E081E026C0C3
:100BD0000091890010918A0091E00230110509F01E
:100BE00090E09F2161E0232B09F060E096238917B4
:100BF000A8F48FE790E022E030E0EC013D832C8305
:100C000068817981772473946230710509F0712CC1
:100C1000209181003091820081E02DC060917F00A1
:100C200070918000772473946230710509F0712C03
:100C3000209181003091820091E02230310509F04D
:100C400090E0972166246394E0908300F090840004
:100C5000EF2809F0612C9621891768F482E090E072
:100C6000909384008093830091E06894EE24E1F8EF
:100C7000F12C81E01BC0E0908300F090840091E0B3
:100C8000D2E0ED16F10409F090E079226624639435
:100C9000232B09F0612C7620871540F422E030E008
:100CA000309382002093810081E01BC0209181005D
:100CB00030918200772473942230310509F0712C31
:100CC000792266246394672B09F0612C76208715BE
:100CD00040F462E070E07093800060937F0081E0F8
:100CE00014C08B2061E0012B09F060E0862288159A
:100CF00060F462E070E070938A0060938900882459
:100D0000839402E010E081E01CC000918900109102
:100D10008A00882483940230110509F0812CB820C0
:100D200061E0CD2809F060E0B6228B1550F462E056
:100D300070E07093880060938700DD24D39481E095
:100D40001BC06091870070918800DD24D3946230CD
:100D5000710509F0D12C8D20CC24C394AB2B09F064
:100D6000C12C8C20881540F4A2E0B0E0B09386003E
:100D7000A093850081E013C09A20A1E0452809F0E6
:100D8000A0E09A22891558F4E2E0F0E0F093900098
:100D9000E0938F00D1E0A2E0B0E081E024C0A09118
:100DA0008F00B0919000D1E0A230B10509F0D0E001
:100DB000AD22C1E0EF2B09F0C0E0AC228A1598F417
:100DC000EFE7F0E042E050E05787468740815181ED
:100DD000C1E04230510509F0C0E06894882481F8F0
:100DE000912C81E04EC080908D0090908E00C1E0EB
:100DF000E2E08E16910409F0C0E0CD23D1E0452B4E
:100E000009F0D0E0CD238C17B0F4AFE7B0E042E0BA
:100E100050E01D965C934E931C974D915C911197F9
:100E200050960D90BC91A02DD1E0A230B10509F0F3
:100E3000D0E081E042C040917F0050918000C1E04D
:100E40004230510509F0C0E0DC22D1E0AB2B09F0C3
:100E5000D0E0DD228D15A8F4AFE7B0E042E050E02D
:100E600051965C934E93509718966D917C9119977B
:100E7000C1E06230710509F0C0E0A2E0B0E081E0BD
:100E80003EC0A0918F00B0919000D1E0A230B1059A
:100E900009F0D0E0CD23DD24D394672B09F0D12CC9
:100EA000CD218C1750F442E050E0509388004093DD
:100EB000870062E070E081E03BC060918700709144
:100EC0008800C1E06230710509F0C0E0DC23DD2458
:100ED000D394452B09F0D12CDD218D1780F4CFE779
:100EE000D0E082E090E0998388834C855D85DD24A5
:100EF000D3944230510509F0D12C81E041C0C9237F
:100F000041E0C0908B00D0908C00CD2809F040E0EB
:100F1000C4238C1768F4CFE7D0E082E090E09D878F
:100F20008C870884D985C02D42E050E081E04CC018
:100F300040918B0050918C00DD24D39442305105B8
:100F400009F0D12C9D21C1E0672B09F0C0E09C2362
:100F50008917B0F4CFE7D0E082E090E099878887E6
:100F6000E880F98091E0F1E0EF16F10409F090E0FB
:100F70006091850070918600C2E0D0E081E056C0AB
:100F8000C0918700D091880091E0C230D10509F06E
:100F900090E0D92291E0EF2809F090E09D21891797
:100FA00098F48FE790E042E050E0FC0155834483E1
:100FB000E080F18044855585BB24B39441305105D0
:100FC00009F0B12C81E050C0E0907F00F0908000EB
:100FD00091E0F1E0EF16F10409F090E060918500F6
:100FE00070918600DD24D3946130710509F0D12C15
:100FF000CD2CC922DD24D394452B09F0D12CDC2043
:101000008D15A0F48FE790E042E050E0FC01558799
:10101000448766817781AA24A3946130710509F021
:10102000A12CB12C42E050E081E03FC040918B0008
:1010300050918C00BB24B3944130510509F0B12C80
:101040009B21DD24D394672B09F0D12C9D21891796
:1010500058F482E090E09093860080938500A12C64
:1010600062E070E081E021C06091850070918600AF
:10107000AA24A3946130710509F0A12CDB2CDA209D
:1010800091E0EF2809F090E09D21891770F482E04B
:1010900090E09093800080937F00FF24F3942130B0
:1010A000310509F0F12C81E021C0FF24F3942130B7
:1010B000310509F0F12C91E0C130D10509F090E043
:1010C0009F21EE24E394892809F0E12C9E218917C1
:1010D00068F482E090E090938E0080938D0090E021
:1010E0006894442441F8512C81E01EC040908D004A
:1010F00050908E0091E0F1E04F16510409F090E01D
:10110000F922EE24E394CD2B09F0E12CFE208F157B
:1011100058F422E030E03093880020938700812C3F
:10112000C2E0D0E081E028C0C0918700D091880063
:1011300088248394C130D10509F0812CE92EE82060
:10114000FF24F394232B09F0F12CFE208F15A0F43B
:10115000AFE7B0E022E030E013963C932E93129775
:1011600014962D913C911597FF24F394213031056D
:1011700009F0F12C81E022C020918300309184009D
:10118000FF24F3942130310509F0F12CDD24D394B0
:101190000130110509F0D12CEE24E394AB2B09F0BA
:1011A000E12CED20EF208E1548F4A2E0B0E0B093E2
:1011B0009000A0938F00E12C81E01DC0A0918F00D2
:1011C000B0919000EE24E394A130B10509F0E12C38
:1011D000FE20DD24D394012B09F0D12CFD208F15A6
:1011E00050F422E030E030938A002093890002E03E
:1011F00010E081E02AC00091890010918A00FF244C
:10120000F3940130110509F0F12CFE20EE24E39453
:10121000232B09F0E12CFE208F15B8F42FE730E0E6
:101220006894EE24E1F8F12CF901F582E482208142
:101230003181772473942130310509F0712CE090CD
:101240008100F090820081E033C020917F003091D6
:101250008000772473942130310509F0712CE090DF
:101260008100F0908200DD24D394F1E0EF16F104C8
:1012700009F0D12C9D2C972066246394C0908300A4
:10128000D0908400CD2809F0612CD92CD6208D1562
:1012900078F46894EE24E1F8F12CF0928400E09266
:1012A0008300912C6894CC24C1F8D12C81E020C01B
:1012B000C0908300D090840099249394E1E0CE16EE
:1012C000D10409F0912C792066246394EF2809F069
:1012D000612C7620871560F422E030E030938200A4
:1012E000209381006894EE24E1F8F12C81E01CC089
:1012F000E0908100F090820077247394F1E0EF1683
:10130000F10409F0712C792066246394232B09F0F1
:10131000612C7620871540F422E030E03093800085
:1013200020937F0081E011C08A2021E0012B09F089
:1013300020E08222881548F422E030E030938A00D1
:101340002093890010E081E01CC020918900309139
:101350008A0011E02130310509F010E0A12201E0FE
:10136000CD2B09F000E0A0228A1558F462E070E06D
:10137000709388006093870000E0C2E0D0E081E0D5
:101380001AC0C0918700D091880001E0C130D1051A
:1013900009F000E01023AA24A394672B09F0A12CE4
:1013A0001A21811740F482E090E0909386008093A8
:1013B000850081E013C09B2161E0AB2B09F060E068
:1013C0009623891758F482E090E0909390008093E0
:1013D0008F00A0E062E070E081E022C060918F00A9
:1013E00070919000A1E06130710509F0A0E0BA228F
:1013F00091E0452809F090E0B9228B1588F4EFE7D9
:10140000F0E082E090E0978786874081518191E00B
:101410004130510509F090E0E2E0F0E081E04DC09C
:10142000E0918D00F0918E0091E0E130F10509F03E
:1014300090E09A23A1E0452B09F0A0E09A238917B8
:10144000B0F4AFE7B0E082E090E01D969C938E93FD
:101450001C974D915C91119750966D917C9151978D
:1014600011E06130710509F010E081E041C0409168
:101470007F005091800091E04130510509F090E0EB
:101480000923A1E0672B09F0A0E00A238017A8F444
:10149000AFE7B0E082E090E051969C938E93509736
:1014A00018960D90BC91A02D91E0A130B10509F0E6
:1014B00090E062E070E081E03EC060918F0070914A
:1014C000900011E06130710509F010E09123A1E076
:1014D000CD2B09F0A0E09A23891750F482E090E028
:1014E0009093880080938700A2E0B0E081E03FC045
:1014F000A0918700B091880091E0A130B10509F07A
:1015000090E01923C1E0452B09F0C0E01C238117AE
:1015100090F4AFE7B0E082E090E011969C938E9358
:101520001C964D915C911D9791E04130510509F059
:1015300090E081E035C0992141E0C0918B00D091CD
:101540008C00CD2B09F040E09423891780F4AFE79D
:10155000B0E082E090E01D969C938E931C971896C5
:101560000D90BC91A02D42E050E081E032C040914E
:101570008B0050918C0091E04130510509F090E0D2
:101580009922C1E0AB2B09F0C0E09C22891540F400
:1015900082E090E0909388008093870081E027C0EC
:1015A000A0918700B0918800C1E0A130B10509F099
:1015B000C0E09C23C1E0CD2809F0C0E0C9238C170E
:1015C00040F482E090E0909384008093830081E077
:1015D00020C091E0AB2B09F090E0891740F482E045
:1015E00090E0909388008093870081E020C091E094
:1015F000A0917F00B0918000AB2B09F090E089179B
:1016000040F482E090E09093800080937F0081E03E
:1016100020C091E0672B09F090E0891740F482E048
:1016200090E09093900080938F0081E020C091E043
:101630006091830070918400672B09F090E0891716
:1016400040F482E090E0909384008093830081E0F6
:1016500020C091E0EF2809F090E0891740F482E083
:1016600090E0909382008093810081E01FC091E020
:101670006091850070918600672B09F090E08917D2
:1016800040F482E090E0909386008093850081E0B2
:101690001AC091E0452B09F090E0891738F482E0F8
:1016A00090E090938C0080938B0019C091E0232BE5
:1016B00009F090E0891738F482E090E090938A0076
:1016C000809389000CC091E0EF2B09F090E089171E
:1016D00030F482E090E090938E0080938D0081E062
:1016E000809360008091610081508093610090E060
:1016F000C0D77FC0882309F442C0209709F479C07D
:10170000CA30D10514F41C2F1650C730D10524F46B
:101710001C2F135002E001C003E0C430D10514F4C3
:101720001C2F01E0802F90E00197212F30E0215005
:101730003109DC01AA0FBB1FA80FB91FA20FB31FED
:10174000AA0FBB1FA158BF4F4D915C911197452B1C
:1017500009F04FC0FD0181E090E0918380831092F9
:1017600060008091610081508093610090E081D79A
:101770009091600080919100981728F03AC0222340
:10178000C1F12097B1F1CA30D1051CF41C2F1650BD
:1017900003E0C730D1051CF41C2F135002E0C43005
:1017A000D10514F41C2F01E0E02FF0E03197812FD8
:1017B00090E00197DF01AA0FBB1FAE0FBF1FA80F5C
:1017C000B91FAA0FBB1FA158BF4F2D913C91119774
:1017D000232B79F4FD0182E090E09183808381E006
:1017E000809360008091610081508093610090E05F
:1017F00040D7DF91CF911F910F91FF90EF90DF9035
:10180000CF90BF90AF909F908F907F906F905F90A0
:101810004F90089583E081BB8FEF87BB14BA84B3E8
:10182000876084BB8DB181658DB97894089583B745
:10183000856083BF89B7816089BF0895A89A8FE0CA
:1018400097E20197F1F700C000009B9922C09C9994
:1018500022C09D9922C0A898A99A8FE097E201978B
:10186000F1F700C000009B991AC09C991AC09D997D
:101870001AC0A998AA9A8FE097E20197F1F700C0E1
:1018800000009B9912C09C9912C09D9912C0AA9801
:10189000089587E0089588E0089589E0089584E038
:1018A000089585E0089586E0089581E0089582E036
:1018B000089583E008951F920F920FB60F9211249E
:1018C0002F933F934F935F936F937F938F939F9348
:1018D000AF93BF93EF93FF9380E090E021D8B7D50B
:1018E000ADDF082E000C990B1BD8FF91EF91BF9133
:1018F000AF919F918F917F916F915F914F913F91A8
:101900002F910F900FBE0F901F90189583DF27D057
:1019100062D09ED72FEF84E39CE02150804090401E
:10192000E1F700C0000057D082DFFFCF672B11F432
:10193000909801C0909A91988FB9779BFECF919A19
:101940000895929882E08A95F1F700C0929A919A50
:101950008FEC97E00197F1F700C000000895F1DFE8
:1019600060E070E081E290E0E1DF60E070E089E05B
:1019700090E0DCDF60E070E080EE90E0D7DF60E0D8
:1019800070E085E190E0D2DF60E070E086E090E01A
:10199000CDDF60E070E080E290E0C8DF60E070E002
:1019A0008CE090E0C3DF0895CF93DF93EB0160E01C
:1019B00070E0805C9F4FBADF60E070E0CE0180583D
:1019C0009F4FB4DF8FE097E20197F1F700C000006E
:1019D000DF91CF910895CF93DF9360E070E080E0D6
:1019E00090E0E2DFC0E3D3E061E070E080E090E00F
:1019F0009DDF2197C9F7DF91CF9108950F931F9332
:101A0000CF93DF938C01000F111F000F111F800F68
:101A1000911FC0E0D0E08C01005A1109F801EC0FD1
:101A2000FD1FEA55FF4F849161E070E090E07EDF9A
:101A30002196C530D10591F761E070E080E090E03B
:101A400075DFDF91CF911F910F910895AEE0B0E067
:101A5000EBE2FDE098C20D891E8986E08C831A8333
:101A600009838FEF9FE79E838D83AE01475E5F4FB3
:101A70006F89788DCE01019609D02F813885F801C4
:101A8000E20FF31F10822E96E4E099C2ACE0B0E0C2
:101A9000EBE4FDE06AC27C016B018A01FC01178264
:101AA0001682838181FFB0C1CE0101964C01F701FE
:101AB0009381F60193FD859193FF81916F018823B6
:101AC00009F49EC1853239F493FD859193FF81918C
:101AD0006F01853221F4B70190E0B1D1E8CF512CEC
:101AE000312C20E02032A0F48B3269F030F48032C7
:101AF00059F0833269F420612CC08D3239F0803383
:101B000039F4216026C02260246023C0286021C0EF
:101B100027FD27C030ED380F3A3078F426FF06C095
:101B2000FAE05F9E300D1124532E13C08AE0389ED8
:101B3000300D1124332E20620CC08E3221F426FD8C
:101B40005FC1206406C08C3611F4206802C088365C
:101B500041F4F60193FD859193FF81916F0181110D
:101B6000C1CF982F9F7D9554933028F40C5F1F4F61
:101B7000FFE3F9830DC0833631F0833771F083358D
:101B800009F057C021C0F801808189830E5F1F4F83
:101B900044244394512C540114C03801F2E06F0ED8
:101BA000711CF801A080B18026FF03C0652D70E094
:101BB00002C06FEF7FEFC5012C8736D12C01830166
:101BC0002C852F77222E16C03801F2E06F0E711C83
:101BD000F801A080B18026FF03C0652D70E002C02F
:101BE0006FEF7FEFC5012C8714D12C012C85206865
:101BF000222E830123FC19C0832D90E0481659063C
:101C0000A0F4B70180E290E01AD13A94F5CFF50143
:101C100027FC859127FE81915F01B70190E00FD1EC
:101C200031103A94F1E04F1A51084114510479F7F8
:101C3000DEC0843611F0893631F5F80127FF07C080
:101C400060817181828193810C5F1F4F08C0608128
:101C50007181072E000C880B990B0E5F1F4F2F769A
:101C6000722E97FF09C090958095709561957F4F72
:101C70008F4F9F4F2068722E2AE030E0A40117D1C9
:101C8000A82EA81843C0853729F42F7EB22E2AE04B
:101C900030E025C0F22FF97FBF2E8F36C1F018F447
:101CA000883579F0ADC0803719F0883721F0A8C0A9
:101CB0002F2F2061B22EB4FE0DC08B2D8460B82E64
:101CC00009C024FF0AC09F2F9660B92E06C028E0E5
:101CD00030E005C020E130E002C020E132E0F80150
:101CE000B7FE07C060817181828193810C5F1F4FB5
:101CF00006C06081718180E090E00E5F1F4FA401FB
:101D0000D6D0A82EA818FB2DFF777F2E76FE0BC00D
:101D1000372D3E7FA51450F474FE0AC072FC08C033
:101D2000372D3E7E05C0BA2C372D03C0BA2C01C01A
:101D3000B52C34FF0DC0FE01EA0DF11D808180330A
:101D400011F4397E09C032FF06C0B394B39404C0C5
:101D5000832F867809F0B39433FD12C030FF06C09C
:101D60005A2CB31418F4530C5B18B32CB31460F44E
:101D7000B70180E290E03C8762D0B3943C85F6CF17
:101D8000B31410F43B1801C0312C34FF11C0B7015B
:101D900080E390E03C8753D03C8532FF16C031FD94
:101DA00003C088E790E002C088E590E0B7010CC06E
:101DB000832F867851F031FF02C08BE201C080E2B0
:101DC00037FD8DE2B70190E03AD0A51430F4B701A9
:101DD00080E390E034D05A94F8CFAA94F401EA0D4D
:101DE000F11D8081B70190E02AD0A110F6CF3320F9
:101DF00009F45DCEB70180E290E021D03A94F7CFAC
:101E0000F7018681978102C08FEF9FEF2C96E2E168
:101E1000C8C0FC010590615070400110D8F7809552
:101E200090958E0F9F1F0895FC01615070400190A6
:101E30000110D8F7809590958E0F9F1F08950F93EE
:101E40001F93CF93DF93FB01238121FD03C08FEF0D
:101E50009FEF28C022FF16C046815781248135811B
:101E60004217530744F4A081B1819D012F5F3F4F7A
:101E7000318320838C93268137812F5F3F4F3783B7
:101E8000268310C0EB01092F182F0084F185E02D67
:101E90000995892BE1F68E819F8101969F838E8320
:101EA000812F902FDF91CF911F910F910895FA010B
:101EB000AA27283051F1203181F1E8946F936E7F89
:101EC0006E5F7F4F8F4F9F4FAF4FB1E03ED0B4E07A
:101ED0003CD0670F781F891F9A1FA11D680F791FBB
:101EE0008A1F911DA11D6A0F711D811D911DA11DCC
:101EF00020D009F468943F912AE0269F11243019DC
:101F0000305D3193DEF6CF010895462F4770405D76
:101F10004193B3E00FD0C9F7F6CF462F4F70405D25
:101F20004A3318F0495D31FD4052419302D0A9F780
:101F3000EACFB4E0A6959795879577956795BA957A
:101F4000C9F700976105710508959B01AC010A2E40
:101F500006945795479537952795BA95C9F7620F17
:101F6000731F841F951FA01D08952F923F924F92BB
:101F70005F926F927F928F929F92AF92BF92CF9219
:101F8000DF92EF92FF920F931F93CF93DF93CDB722
:101F9000DEB7CA1BDB0B0FB6F894DEBF0FBECDBF9A
:101FA00009942A88398848885F846E847D848C846B
:101FB0009B84AA84B984C884DF80EE80FD800C8174
:101FC0001B81AA81B981CE0FD11D0FB6F894DEBF57
:0C1FD0000FBECDBFED010895F894FFCFC7
:101FDC000109252E326400445241570031202D2036
:0C1FEC005056500032202D205056450069
:00000001FF
