:100000000C9483090C94A0090C94A0090C94A009E9
:100010000C94A0090C94A0090C94A0090C94A009BC
:100020000C94A0090C94A0090C94A0090C94A009AC
:100030000C94A0090C94A0090C94A0090C94A0099C
:100040000C9431160C94A0090C94A0090C94A009EE
:100050000C94A0090C94A0090C94A0090C94A0097C
:100060000C94A0090C94A0090C0E0703C3E77E3C76
:100070003C3E373331303030000406FFFF000000D3
:100080000030303F3F303000FFFF00000080800034
:100090000000FFFF000003FFFF0300FFFFE0C08040
:1000A0000000FFFF00030F3E381E07071E383E0FFB
:1000B000030000303F3F30003F3F000103070E3F89
:1000C0003F00FFFF0303030307FEFC0000FFFFC325
:1000D000C3C3C3C3FF7E0000F0FCCEC7C7CEFCF88D
:1000E0000000FFFF8000000000000080FFFF000014
:1000F0000000007F7F60606060703F1F00007F7FB6
:1001000000000001077E7800007F7F000000007F74
:100110007F000000071F7C601C1C607C1F07000024
:1001200000000000FFFF8383838383FFFF0006FF3F
:10013000FF000098D8D8D8D8D8F8F00000F8F80018
:10014000000000F8F800F0F898989898F8F000F897
:10015000F83018181838303F3F0101010101010142
:1001600000303F3F30001F3F303030181F3F30001D
:10017000C1C3C7C6C6F67F1F000F1F3931313131E9
:1001800030003F3F000000000000FE0101010101BE
:10019000010101010101010101FE7F808080808059
:1001A0008080808080808080807FFE010D1D39717D
:1001B000E1C1C1E171391D0D01FE7F80B0B89C8E97
:1001C000878383878E9CB8B0807FFE01C1F1391987
:1001D0000D0D0D0D1939F1C101FE7F80838F9C98A3
:1001E000B0B0B0B0989C8F83807FFFFFFF7F7F3FD0
:1001F0001F07070707070707070707070707070777
:1002000007078747870707C747474787078747473E
:10021000478707C7070707C7074747C7474707076E
:1002200007874747478707078747870707C787071E
:1002300087C707C74747470707070707070707078E
:100240000707070707070707071F3F7F7FFFFFFF16
:10025000FFFFFF00000000000000000000000000A1
:10026000000000000000001F0202021F001F121207
:10027000120D000F1010100F000F1010100F0000C3
:10028000001F00000000000F1012120E001F0202DB
:10029000021F001F0001001F001F121212000000A9
:1002A000000000000000000000000000000000004E
:1002B000000000FFFFFFFFFFFF0000000000003C08
:1002C000C000C03C00E050507000F0201010200032
:1002D0002050509000E800E01010E000F01010E016
:1002E000000000404040000008FC000000008804BE
:1002F0000424D80008FC00000000000000000000FA
:1003000000000000000000000000000000000000ED
:10031000000000000000000000FFFFFFFFFFFF00E3
:100320000000000000F00809081000C02121C100F1
:10033000E12020C00040A1A1210020F920000101FE
:10034000E040212000E10000E000C020200021F971
:1003500021000100C0A1A1E100C02121F90000405D
:10036000000000000000000000000000000000008D
:10037000000000000000000000000000000000FF7E
:10038000FFFFFFFFFF00000000000021F20202213A
:100390001011926201000320F0030022F20201001A
:1003A00000211212916003E0101010E10222F1000E
:1003B00001E292909021020201000102020200017A
:1003C0000202030000010000000000000000000025
:1003D000000000000000000000000000000000001D
:1003E0000000000000FFFFFFFFFFFF000000000013
:1003F00000844724408204840403800480E487044A
:100400000004078480040084068584040003040437
:100410000403000407E4000304E404834020408054
:1004200000E00000000000000000000000000000EC
:1004300000000000000000000000000000000000BC
:100440000000000000000000000000FFFFFFFFFFB1
:10045000FF0000000000000F0101010F0007080865
:10046000070000070808040007080807000F01003C
:100470000000000002020200000000010608060160
:10048000000F0101010F000F080808000000000024
:10049000000000000000000000000000000000005C
:1004A000000000000000000000000000000000004C
:1004B00000FFFFFFFFFFFFFEFEFCF8E0E0E0E0E0F2
:1004C000E0E0E0E0E0E0E0E0E0E0E0E0E0E0E0E02C
:1004D000E0E0E0E0E0E0E0E0E0E0E0E0E0E0E0E01C
:1004E000E0E0E0E0E0E0E0E0E0E0E0E0E0E0E0E00C
:1004F000E0E0E0E0E0E0E0E0E0E0E0E0E0E0E0E0FC
:10050000E0E0E0E0E0E0E0E0E0E0E0E0E0E0E0E0EB
:10051000E0E0E0F8FCFEFEFFFFFFFFFFFF7F7F3F14
:100520001F07070707070707070707070707070743
:10053000070707070707070707070707070707074B
:10054000070707070707070707070707070707073B
:10055000070707070707070707070707070707072B
:10056000070707070707070707070707070707071B
:100570000707070707070707071F3F7F7FFFFFFFE3
:10058000FFFFFF000000000000000000000000006E
:10059000000000000000000000000000000000005B
:1005A000000000000000000000000000000000004B
:1005B000000000000000000000000000000000003B
:1005C000000000000000000000000000000000002B
:1005D000000000000000000000000000000000001B
:1005E000000000FFFFFFFFFFFF0000000000000011
:1005F00000000000000000000000000000000000FB
:1006000000000000000000000000000000000000EA
:1006100000000000000000000000000000000000DA
:1006200000000000000000000000000000000000CA
:1006300000000000000000000000000000000000BA
:10064000000000000000000000FFFFFFFFFFFF00B0
:10065000000000000000000000000000000000009A
:10066000000000000000000000000000000000008A
:10067000000000000000000000000000000000007A
:10068000000000000000000000000000000000006A
:10069000000000000000000000000000000000005A
:1006A000000000000000000000000000000000FF4B
:1006B000FFFFFFFFFF00000000000000000000003F
:1006C000000000000000000000000000000000002A
:1006D000000000000000000000000000000000001A
:1006E000000000000000000000000000000000000A
:1006F00000000000000000000000000000000000FA
:1007000000000000000000000000000000000000E9
:100710000000000000FFFFFFFFFFFF0000000000DF
:1007200000000000000000000000000000000000C9
:1007300000000000000000000000000000000000B9
:1007400000000000000000000000000000000000A9
:100750000000000000000000000000000000000099
:100760000000000000000000000000000000000089
:100770000000000000000000000000FFFFFFFFFF7E
:10078000FF0000000000000000000000000000006A
:100790000000000000000000000000000000000059
:1007A0000000000000000000000000000000000049
:1007B0000000000000000000000000000000000039
:1007C0000000000000000000000000000000000029
:1007D0000000000000000000000000000000000019
:1007E00000FFFFFFFFFFFFFEFEFCF8E0E0E0E0E0BF
:1007F000E0E0E0E0E0E0E0E0E0E0E0E0E0E0E0E0F9
:10080000E0E0E0E0E0E0E0E0E0E0E0E0E0E0E0E0E8
:10081000E0E0E0E0E0E0E0E0E0E0E0E0E0E0E0E0D8
:10082000E0E0E0E0E0E0E0E0E0E0E0E0E0E0E0E0C8
:10083000E0E0E0E0E0E0E0E0E0E0E0E0E0E0E0E0B8
:10084000E0E0E0F8FCFEFEFFFFFFFFFFFF7F7F3FE1
:100850001F07070707070707070707070707070710
:100860000707070707070707070707070707070718
:10087000F7274727F707F79797979707F7478707C8
:10088000F707F7070707F707070707070707070728
:1008900007070707070707070707070707070707E8
:1008A0000707070707070707071F3F7F7FFFFFFFB0
:1008B000FFFFFF000000000000000000000000003B
:1008C0000000000000000000000000000000000028
:1008D00000000000000007000000070007040404F7
:1008E00004000700000107000304040403000000E3
:1008F00000000000000000000000000000000000F8
:1009000000000000000000000000000000000000E7
:10091000000000FFFFFFFFFFFF00000000000000DD
:1009200004FE000000001010100000001E60806037
:100930001E004C9292926400000000FE1212120CF3
:100940000082FE800068A8A8F08000788080F8000F
:1009500070A8A8A81000F8100808100000000000F7
:100960000000000000000000000000000000000087
:10097000000000000000000000FFFFFFFFFFFF007D
:1009800000000000000080808000000000000000E7
:1009900000000080000000800000808080000000D7
:1009A00000008080800000000000000000000000C7
:1009B00000020202010000000000000000800000B0
:1009C0000000000000000000000000000000000027
:1009D000000000000000000000000000000000FF18
:1009E000FFFFFFFFFF00000000000021302824234C
:1009F000000004040400000000071820180700137A
:100A0000242424190000001F20202011001C222271
:100A10001C003E023C023C00FE22221C009EA0A0C4
:100A20007E00021F222010001C2A2A2A04003E04F5
:100A300002020400000000000000000000000000AE
:100A40000000000000FFFFFFFFFFFF0000000000AC
:100A50000040202020C000000000000000000080B6
:100A60004020408000E08080000000808000008006
:100A70000000800080E08000000000000000808016
:100A80008000808080000000808000800000008066
:100A90008080000000000000000000000000000056
:100AA0000000000000000000000000FFFFFFFFFF4B
:100AB000FF00000000000004080809060000010112
:100AC00001000000000F0101010F000F08080700DE
:100AD00007080807000708080700000708080400BF
:100AE0000000002728281F000E0A0A0F08000F0028
:100AF0000F000F00070A0A0A0100000000000000B2
:100B000000000000000000000000000000000000E5
:100B100000FFFFFFFFFFFFFEFEFCF8E0E0E0E0E08B
:100B2000E0E0E0E0E0E0E0E0E0E0E0E0E0E0E0E0C5
:100B3000E0E0E0E0E0E0E0E0E0E0E0E0E0E0E0E0B5
:100B4000E0E0E0E0E0E0E0E0E0E0E0E0E0E0E0E0A5
:100B5000E0E0E0E0E0E0E0E0E0E0E0E0E0E0E0E095
:100B6000E0E0E0E0E0E0E0E0E0E0E0E0E0E0E0E085
:100B7000E0E0E0F8FCFEFEFFFFFFFFFFFF7F7F3FAE
:100B80001F070707070707C7E7F7F7F7F7F7F7F7AD
:100B9000F7F7F7F7F7F7F777777777777777777765
:100BA000F7E78707070707070707F7F7F7F70707C5
:100BB00007070707070707070707070707070707C5
:100BC000070707070787C7E7F7F7F7777777373715
:100BD00037373777F7F7F707071F3F7F7FFFFFFFAD
:100BE000FFFFFF0000000000000000000003030101
:100BF0000101000000000000FFFFFFFFFF000000F8
:100C000000000000000001010100000000000000E1
:100C1000FEFEFEFE000000000000000000000000DC
:100C2000000000000000000000FEFFFFFF030100C5
:100C300000000000000000000000000000000000B4
:100C4000000000FFFFFFFFFFFF00000000000000AA
:100C50000000009C9CBCB8B8B8B8B8B8BCBCBFBF5A
:100C60009F8F8780808080808080800000000000CF
:100C7000000000000000071F3F3F78706060606068
:100C800070783C3C00000000000000000000000301
:100C9000070F1F3C3C3C3838383020203038383C77
:100CA0003C1C1C000000000000FFFFFFFFFFFF00D6
:100CB000000000000000001E1F0F0F0F07070707AE
:100CC0000707FFFFFFFFFF03030303030303030300
:100CD0000F0F0C000000F8FCFEFF0F0707030303D3
:100CE00003030307070FFFFEFCF8000000000000ED
:100CF000000000E0F0F8FC3E1F0F0F07070703039A
:100D0000030303070F0F0F0000000000000000FFA7
:100D1000FFFFFFFFFF0000000000000000E0E0E038
:100D2000C0C0C0C0C0C0E0E0FFFFFF7F3F000000C8
:100D30000000000000000000000000007FFFFFFF37
:100D4000808080000000008080C0C0C0FF7FFFFF67
:100D5000000000C0C0000000003F7FFFFFC0C0C017
:100D6000808080000000008080C0C0C0C000000003
:100D70000000000000FFFFFFFFFFFF000000000079
:100D800000F0F87C7C7D3D3D3D3D3D3DFDFDFDFDA4
:100D9000FC1C1C1C1C1C1C1C1C1C7C786000000007
:100DA000E0E0F0F079393B1B1B1B1B1B1B1B3B7B43
:100DB000F1F1E0E003030303030300000080C0E05F
:100DC000E070713B3B3B1B1B1B1B1A1A3BFBFBFBE5
:100DD000FB01010000000000000000FFFFFFFFFF1B
:100DE000FF00000000000000000000000000000004
:100DF0000000FFFFFFFFFF000000000000000000F8
:100E0000000000000000FFFFFFFF000000000000E6
:100E1000000000000000FFFFFFFF000000000000D6
:100E20000000007FFFFFFF3C38383838383838384A
:100E30003818180F0F07070000000000000000001E
:100E400000FFFFFFFFFFFFFEFEFCF8E0E0E7E7EF3B
:100E5000EEEEEEEEEEEEEFEFEFEFE7E3E1E0E0E0F7
:100E6000E0E0E0E0E0E0E0E0E0E0E0E0E3E7E7E76A
:100E7000EEECECE8E8E8E8E8E8ECECEEE7E7E3E3E2
:100E8000E0E0E0E0E0E0E0E0E0E0E1E3E3E7E7EE3F
:100E9000EEECECECE8E8ECECECEEEFE7E7E0E0E0C1
:100EA000E0E0E0F8FCFEFEFFFFFFFFFFFF7F7F3F7B
:100EB0001F070707070707070707E7E7E70707070A
:100EC00007070707070707070707070707070707B2
:100ED00007070707070707E7E7E7C7070707070742
:100EE0000707070707070707070707070707070792
:100EF0000707070707070707070707070707070782
:100F00000707070707070707071F3F7F7FFFFFFF49
:100F1000FFFFFF00000000000000000000000000D4
:100F200000073FFFFCE000000000000000000000A0
:100F300000000000000000000000E0FCFF1F0707A9
:100F40003FFFF8E00000000000000000000000008B
:100F50000000000000000000000000000000000091
:100F60000000000000000000000000000000000081
:100F7000000000FFFFFFFFFFFF0000000000000077
:100F800000000000000000000001073FFFF8C00063
:100F900000000000000000000000000000E0FCFF76
:100FA0003F07000000000001073FFFF8E0000000DD
:100FB0000000000000000000000000000000000031
:100FC0000000000000000000000000000000000021
:100FD000000000000000000000FFFFFFFFFFFF0017
:100FE0000000000000000000000000000000000001
:100FF0000000010F7FFFF8C00000000000000000AB
:10100000E0F8FF3F1F1C1C1C1C1C1C1C1C1C1C1C77
:101010001C1F1FFFFCE0800000000000000000001B
:1010200000000000000000000000000000000000C0
:10103000000000000000000000000000000000FFB1
:10104000FFFFFFFFFF0000000000000000000000A5
:101050000000000000000000000000010F7FFEF013
:10106000C00000C0F8FF3F070100000000000000C2
:1010700000000000000000000000071FFFFCF080DF
:101080000000000000000000000000000000000060
:101090000000000000000000000000000000000050
:1010A0000000000000FFFFFFFFFFFF000000000046
:1010B0000000000000000000000000000000000030
:1010C00000000000030F7F7E7F3F0701000000004B
:1010D0000000000000000000000000000000000010
:1010E000000000031F7F7C707070707070707070F3
:1010F00070707070707070707070707070707070F0
:101100000000000000000000000000FFFFFFFFFFE4
:10111000FF000000000000000000000000000000D0
:101120000000000000000000000000FC20508C00C7
:10113000F00000F000F4007080008070000040407B
:101140004000088464241800F8040404F80008FC33
:101150000000F8242424C800000000000000000063
:10116000000000000000000000000000000000007F
:1011700000FFFFFFFFFFFFFEFEFCF8E0E0E0E0E025
:10118000E0E0E0E0E0E0E0E0E0E0E0E0E0E0E0E05F
:10119000E0E1E0E0E1E0E4E5E5E3E0E1E0E0E0E13A
:1011A000E0E0E0E0E0E0E0E0E1E1E1E1E1E0E0E139
:1011B000E1E1E0E0E1E1E1E0E0E1E1E1E0E0E0E027
:1011C000E0E0E0E0E0E0E0E0E0E0E0E0E0E0E0E01F
:1011D000E0E0E0F8FCFEFEFFFFFF00000000000082
:1011E000005F00000007000700147F147F14242A0A
:1011F0007F2A1223130864623649552250000503E2
:101200000000001C2241000041221C0014083E087E
:101210001408083E080800503000000808080808B4
:10122000006060000020100804023E4141413E0081
:1012300004027F0042615149462241414936181457
:1012400012117F47454545393E49494932010161FF
:1012500019073649494936264949493E003636007C
:10126000000056360000081422410014141414140F
:1012700000412214080201510906324979413E7C9D
:101280001211127C7F49494E303E414141227F413B
:1012900041221C7F494949417F090909013E4151C9
:1012A00051327F0808087F00417F41002040413FC4
:1012B000017F081422417F404040407F0204027FAA
:1012C0007F0408107F3E4141413E7E1111110E3EC8
:1012D0004151617E7E1111214E2649494932010159
:1012E0007F01013F4040403F0F3040300F3F4030D2
:1012F000403F6314081463030478040300000000F3
:1013000000000000000011241FBECFEFD8E0DEBFB8
:10131000CDBF11E0A0E0B1E0EAE0F4E302C0059047
:101320000D92A830B107D9F721E0A8E0B1E001C0E3
:101330001D92AF31B207E1F70E9460160C94031AB8
:101340000C9400002FEF89E698E1215080409040F6
:10135000E1F700C00000ECE0F1E01182108213829E
:1013600012821582148217821682118610861386C5
:1013700012861586148617861686118A108A89E0C9
:101380008093010181E08093000108950F931F93E2
:10139000CF93DF9360E070E080E090E00E94D3168E
:1013A000CAEADEE00AEE11E1FE01849161E070E03C
:1013B00090E00E948C162196C017D107A9F7DF9103
:1013C000CF911F910F9108950F931F93CF93DF93A8
:1013D00060E070E080E090E00E94D316CAE7DBE0B6
:1013E0000AEB1EE0FE01849161E070E090E00E9453
:1013F0008C162196C017D107A9F7DF91CF911F91C5
:101400000F9108950F931F93CF93DF9360E070E0E7
:1014100080E090E00E94D316CAE4D8E00AE81BE01E
:10142000FE01849161E070E090E00E948C162196AC
:10143000C017D107A9F7DF91CF911F910F910895A0
:101440000F931F93CF93DF9360E070E080E090E014
:101450000E94D316CAE1D5E00AE518E0FE018491A6
:1014600061E070E090E00E948C162196C017D107D1
:10147000A9F7DF91CF911F910F910895AF92BF927D
:10148000CF92DF92EF92FF920F931F93CF93DF9350
:1014900000D000D01F92CDB7DEB77C015B016A019E
:1014A00080910801811105C00E94200A81E080938B
:1014B0000801AA0CBB1CCC0CDD1CCC0CDD1CCC0C1C
:1014C000DD1CCC0CDD1C81E2C80ED11CB601C501AF
:1014D00001970E94D316EE0CFF1CEE0CFF1CEE0CC5
:1014E000FF1CEE0CFF1CEE0CFF1C00E010E007C020
:1014F0000031110521F4B601C5010E94D316F8018F
:10150000EE0DFF1DE657FE4F849161E070E090E024
:101510000E948C160F5F1F4F0032110549F7809112
:101520000B011F928F9302E011E01F930F93FE01B6
:1015300031967F01FF93EF930E942B1765E070E0D7
:1015400081E090E00E94D316898190E00E9401170B
:101550008A8190E00E94011780E289839DE29A834C
:1015600090E29B831C8290E00E9401178A8190E0A8
:101570000E9401178B8190E00E94011780910A015F
:101580001F928F931F930F93FF92EF920E942B173E
:10159000898190E00E9401178A8190E00E940117E2
:1015A0000FB6F894DEBF0FBECDBF80910001882337
:1015B00009F439C064E170E083E090E00E94D31642
:1015C00008E710E00F2EF0E8EF2EF0E0FF2EF02DF0
:1015D000F801849161E070E0082E000C990B0E94E4
:1015E0008C160F5F1F4F0E151F0591F764E170E019
:1015F00084E090E00E94D31600E810E00F2EF8E897
:10160000EF2EF0E0FF2EF02DF801849161E070E004
:10161000082E000C990B0E948C160F5F1F4F0E15A1
:101620001F0591F738C064E170E083E090E00E940C
:10163000D31608E610E00F2EF0E7EF2EF0E0FF2EB5
:10164000F02DF801849161E070E0082E000C990BF8
:101650000E948C160F5F1F4F0E151F0591F764E156
:1016600070E084E090E00E94D31600E710E00F2EB7
:10167000F8E7EF2EF0E0FF2EF02DF801849161E005
:1016800070E0082E000C990B0E948C160F5F1F4F04
:101690000E151F0591F70F900F900F900F900F9060
:1016A000DF91CF911F910F91FF90EF90DF90CF903E
:1016B000BF90AF900895AF92BF92CF92DF92EF921A
:1016C000FF920F931F93CF93DF930F2EFCE0CF2E4B
:1016D000F1E0DF2EF02DEE24E394F12CAA24A39464
:1016E000B12C16C0AE01B701F801819191918F0123
:1016F0000E943E0A2196C430D105A1F7FFEFEF1AF0
:10170000FF0A86E0C80ED11CE4E0EE16F10421F0D9
:101710008601CA2DDB2DE6CFDF91CF911F910F916E
:10172000FF90EF90DF90CF90BF90AF9008950F9310
:101730001F93CF93DF93EC011092080181E0809317
:101740000901EEE6F0E090819E7F90830E945B0BA2
:101750002FEF89E698E1215080409040E1F700C0EA
:1017600000000E94EC160E94200A209779F56EE195
:1017700070E082E090E00E94D316C2ECD0E00EEE62
:1017800010E0FE01849161E070E0082E000C990BDE
:101790000E948C162196C017D10799F76EE170E070
:1017A00083E090E00E94D316C3EFD0E00FE111E098
:1017B000FE01849161E070E0082E000C990B0E94FC
:1017C0008C162196C017D10799F726C1C130D105D3
:1017D00009F090C080910B018F5F80930B0164E151
:1017E00070E082E090E00E94D316C4E2D1E007E509
:1017F00011E0FE01849161E070E0082E000C990B6D
:101800000E948C162196C017D10799F764E170E009
:1018100083E090E00E94D316C7E5D1E00AE811E02A
:10182000FE01849161E070E0082E000C990B0E948B
:101830008C162196C017D10799F760E570E082E019
:1018400090E00E94D316C8E7D0E000E810E0FE0167
:10185000849161E070E0082E000C990B0E948C16B8
:101860002196C017D10799F760E570E083E090E01A
:101870000E94D316C0E8D0E008E810E0FE01849191
:1018800061E070E0082E000C990B0E948C162196E6
:10189000C017D10799F768E270E084E090E00E94F9
:1018A000D316C8E8D0E005EA10E0FE01849161E0BB
:1018B00070E0082E000C990B0E948C162196C01720
:1018C000D10799F768E270E085E090E00E94D316B6
:1018D000C5EAD0E002EC10E0FE01849161E070E026
:1018E000082E000C990B0E948C162196C017D10768
:1018F00099F792C0229709F08FC080910A018F5FFB
:1019000080930A0164E170E082E090E00E94D316C7
:10191000C4E2D1E007E511E0FE01849161E070E0EE
:10192000082E000C990B0E948C162196C017D10727
:1019300099F764E170E083E090E00E94D316C7E578
:10194000D1E00AE811E0FE01849161E070E0082E28
:10195000000C990B0E948C162196C017D10799F79D
:1019600060E570E082E090E00E94D316C8E6D0E027
:1019700000E710E0FE01849161E070E0082E000CA9
:10198000990B0E948C162196C017D10799F760E534
:1019900070E083E090E00E94D316C0E7D0E008E753
:1019A00010E0FE01849161E070E0082E000C990BBC
:1019B0000E948C162196C017D10799F768E270E053
:1019C00084E090E00E94D316C8E8D0E005EA10E079
:1019D000FE01849161E070E0082E000C990B0E94DA
:1019E0008C162196C017D10799F768E270E085E060
:1019F00090E00E94D316C5EAD0E002EC10E0FE01B0
:101A0000849161E070E0082E000C990B0E948C1606
:101A10002196C017D10799F70E94A209FFEF23ED85
:101A200080E3F15020408040E1F700C000000E94B8
:101A3000EC16EEE6F0E0808181608083DF91CF914B
:101A40001F910F9108950F931F93CF93DF93EC0194
:101A500006970CF0E9C051E080910C0190910D01C6
:101A6000019709F050E0F1E080911201909113018B
:101A7000019709F0F0E071E080911801909119014F
:101A8000019709F070E021E080910E0190910F0123
:101A9000019709F020E0A1E08091140190911501D7
:101AA000019709F0A0E091E000911A0110911B014B
:101AB0000130110509F090E061E0009110011091F2
:101AC00011010130110509F060E041E000911601BB
:101AD000109117010130110509F040E031E000914B
:101AE0001C0110911D010130110509F030E08A2F11
:101AF0008223E82FE9238F2F852387238E2BE42F42
:101B0000E623E3238E2B25232623282BFA234F239A
:101B1000242B97239323922B5A233523932B19F4A9
:101B20007A23672321F081E090E00E94970B41E047
:101B300080910C0190910D01029709F040E0F1E0D5
:101B40008091120190911301029709F0F0E061E099
:101B50008091180190911901029709F060E021E04D
:101B600080910E0190910F01029709F020E0A1E011
:101B70008091140190911501029709F0A0E091E085
:101B800000911A0110911B010230110509F090E03B
:101B900051E000911001109111010230110509F07E
:101BA00050E031E00091160110911701023011054B
:101BB00009F030E081E000911C0110911D0102301C
:101BC000110509F080E07A2F7223E72FE9237F2F98
:101BD000742376237E2BE32FE523E8237E2B242317
:101BE0002523272BFA233F23232B96239823922B5D
:101BF0004A238423982B19F46A23562321F082E088
:101C000090E00E94970B80910901882329F010929F
:101C100008011092090108C0CD2B31F4109208017F
:101C200080E090E00E94970BDF91CF911F910F9180
:101C300008954F925F926F927F928F929F92AF9290
:101C4000BF92CF92DF92EF92FF920F931F93CF93A9
:101C5000DF93EC0120911E018091000191E0982713
:101C6000291708F0D1C6C0910C01D0910D0191E067
:101C7000C230D10509F090E0ECE0F1E02681378137
:101C80004485558581E02230310509F080E08923C3
:101C900061E04115510509F060E0A82EA62291F0FF
:101CA000ECE0F1E082E090E095878487A681B7813F
:101CB000BB24B394A230B10509F0B12C42E050E04E
:101CC00081E049C0AA24A3944230510509F0A12C17
:101CD00081E0232B09F080E0B82EB922BA20A9F0C8
:101CE000ECE0F1E082E090E097838683228133810B
:101CF00091E02230310509F090E06091140170917B
:101D00001501A2E0B0E081E05AC0A0911201B091AB
:101D10001301BB24B394A230B10509F0B12CAA2061
:101D2000C9F081E0CD2B09F080E08B2199F0ECE047
:101D3000F1E082E090E09183808322813381068408
:101D4000F785E02D99249394E230F10509F0912C68
:101D500081E055C080E020910E0130910F0191E0AB
:101D60002230310509F090E0609114017091150165
:101D7000E1E06230710509F0E0E0FE2FF923E1E0D7
:101D8000C0911A01D0911B01CD2B09F0E0E0EF23A7
:101D90008E17A8F4ECE0F1E082E090E09787868768
:101DA000C084D1848824839462E0C616D10409F0EB
:101DB000812C99249394E2E0F0E081E047C0E09127
:101DC0001A01F0911B0199249394E230F10509F076
:101DD000912C9921C1E0672B09F0C0E09C23891761
:101DE00070F482E090E090931501809314018824B0
:101DF00083946894CC24C1F8D12C81E027C0C09092
:101E00001401D09015018824839492E0C916D1045E
:101E100009F0812C692D682191E0232B09F090E0D5
:101E20009623891798F4CCE0D1E082E090E09B8380
:101E30008A832C813D8191E02230310509F090E0C8
:101E4000609116017091170181E02EC02091100160
:101E50003091110191E02230310509F090E060915C
:101E6000160170911701C1E06230710509F0C0E000
:101E70001C2F192301E0C0911C01D0911D01CD2B15
:101E800009F000E0C12FC0238C1770F482E090E0CD
:101E900090931D0180931C01FF24F39468944424C3
:101EA00041F8512C81E01DC040901C0150901D0153
:101EB000FF24F394C2E04C16510409F0F12C9F2149
:101EC00011E0672B09F010E09123891750F482E0AC
:101ED00090E0909317018093160102E010E081E0FA
:101EE00026C0009116011091170191E002301105F2
:101EF00009F090E09F2161E0232B09F060E0962338
:101F00008917A8F48CE091E022E030E0EC013D83F9
:101F10002C8368817981772473946230710509F08C
:101F2000712C20910E0130910F0181E02DC0609144
:101F30000C0170910D01772473946230710509F0E2
:101F4000712C20910E0130910F0191E0223031056A
:101F500009F090E0972166246394E0901001F090DE
:101F60001101EF2809F0612C9621891768F482E0AD
:101F700090E0909311018093100191E06894EE2419
:101F8000E1F8F12C81E01BC0E0901001F09011010C
:101F900091E0D2E0ED16F10409F090E07922662498
:101FA0006394232B09F0612C7620871540F422E0FE
:101FB00030E030930F0120930E0181E01BC020918F
:101FC0000E0130910F01772473942230310509F00E
:101FD000712C792266246394672B09F0612C76209A
:101FE000871540F462E070E070930D0160930C017E
:101FF00081E014C08B2061E0012B09F060E08622B3
:10200000881560F462E070E0709317016093160128
:102010008824839402E010E081E01CC00091160146
:1020200010911701882483940230110509F0812C46
:10203000B82061E0CD2809F060E0B6228B1550F49D
:1020400062E070E07093150160931401DD24D39475
:1020500081E01BC06091140170911501DD24D394BF
:102060006230710509F0D12C8D20CC24C394AB2BA8
:1020700009F0C12C8C20881540F4A2E0B0E0B093A8
:102080001301A093120181E013C09A20A1E045281A
:1020900009F0A0E09A22891558F4E2E0F0E0F0930C
:1020A0001D01E0931C01D1E0A2E0B0E081E024C07A
:1020B000A0911C01B0911D01D1E0A230B10509F041
:1020C000D0E0AD22C1E0EF2B09F0C0E0AC228A15D0
:1020D00098F4ECE0F1E042E050E057874687408119
:1020E0005181C1E04230510509F0C0E06894882474
:1020F00081F8912C81E04EC080901A0190901B01D4
:10210000C1E0E2E08E16910409F0C0E0CD23D1E0F9
:10211000452B09F0D0E0CD238C17B0F4ACE0B1E052
:1021200042E050E01D965C934E931C974D915C915C
:10213000119750960D90BC91A02DD1E0A230B10521
:1021400009F0D0E081E042C040910C0150910D01B6
:10215000C1E04230510509F0C0E0DC22D1E0AB2BF8
:1021600009F0D0E0DD228D15A8F4ACE0B1E042E04A
:1021700050E051965C934E93509718966D917C91D8
:102180001997C1E06230710509F0C0E0A2E0B0E04B
:1021900081E03EC0A0911C01B0911D01D1E0A230B0
:1021A000B10509F0D0E0CD23DD24D394672B09F0ED
:1021B000D12CCD218C1750F442E050E05093150102
:1021C0004093140162E070E081E03BC06091140133
:1021D00070911501C1E06230710509F0C0E0DC23A7
:1021E000DD24D394452B09F0D12CDD218D1780F40B
:1021F000CCE0D1E082E090E0998388834C855D85D6
:10220000DD24D3944230510509F0D12C81E041C046
:10221000C92341E0C0901801D0901901CD2809F0E0
:1022200040E0C4238C1768F4CCE0D1E082E090E079
:102230009D878C870884D985C02D42E050E081E0DD
:102240004CC04091180150911901DD24D3944230C3
:10225000510509F0D12C9D21C1E0672B09F0C0E0A8
:102260009C238917B0F4CCE0D1E082E090E099871C
:102270008887E880F98091E0F1E0EF16F10409F039
:1022800090E06091120170911301C2E0D0E081E012
:1022900056C0C0911401D091150191E0C230D10512
:1022A00009F090E0D92291E0EF2809F090E09D211B
:1022B000891798F48CE091E042E050E0FC015583EE
:1022C0004483E080F18044855585BB24B39441303C
:1022D000510509F0B12C81E050C0E0900C01F09064
:1022E0000D0191E0F1E0EF16F10409F090E060914A
:1022F000120170911301DD24D3946130710509F04E
:10230000D12CCD2CC922DD24D394452B09F0D12C1E
:10231000DC208D15A0F48CE091E042E050E0FC015F
:102320005587448766817781AA24A394613071051B
:1023300009F0A12CB12C42E050E081E03FC0409177
:10234000180150911901BB24B3944130510509F093
:10235000B12C9B21DD24D394672B09F0D12C9D2136
:10236000891758F482E090E0909313018093120152
:10237000A12C62E070E081E021C0609112017091B7
:102380001301AA24A3946130710509F0A12CDB2C60
:10239000DA2091E0EF2809F090E09D21891770F490
:1023A00082E090E090930D0180930C01FF24F39460
:1023B0002130310509F0F12C81E021C0FF24F39494
:1023C0002130310509F0F12C91E0C130D10509F03F
:1023D00090E09F21EE24E394892809F0E12C9E21CE
:1023E000891768F482E090E090931B0180931A01B2
:1023F00090E06894442441F8512C81E01EC0409044
:102400001A0150901B0191E0F1E04F16510409F0C0
:1024100090E0F922EE24E394CD2B09F0E12CFE208C
:102420008F1558F422E030E0309315012093140109
:10243000812CC2E0D0E081E028C0C0911401D0918D
:10244000150188248394C130D10509F0812CE92E2F
:10245000E820FF24F394232B09F0F12CFE208F15A4
:10246000A0F4ACE0B1E022E030E013963C932E9370
:10247000129714962D913C911597FF24F3942130D7
:10248000310509F0F12C81E022C02091100130913A
:102490001101FF24F3942130310509F0F12CDD24E2
:1024A000D3940130110509F0D12CEE24E394AB2B29
:1024B00009F0E12CED20EF208E1548F4A2E0B0E009
:1024C000B0931D01A0931C01E12C81E01DC0A091DF
:1024D0001C01B0911D01EE24E394A130B10509F077
:1024E000E12CFE20DD24D394012B09F0D12CFD201A
:1024F0008F1550F422E030E030931701209316013D
:1025000002E010E081E02AC000911601109117014D
:10251000FF24F3940130110509F0F12CFE20EE2484
:10252000E394232B09F0E12CFE208F15B8F42CE066
:1025300031E06894EE24E1F8F12CF901F582E482AF
:1025400020813181772473942130310509F0712C79
:10255000E0900E01F0900F0181E033C020910C015A
:1025600030910D01772473942130310509F0712CDD
:10257000E0900E01F0900F01DD24D394F1E0EF160E
:10258000F10409F0D12C9D2C972066246394C0900F
:102590001001D0901101CD2809F0612CD92CD62042
:1025A0008D1578F46894EE24E1F8F12CF092110185
:1025B000E0921001912C6894CC24C1F8D12C81E0D8
:1025C00020C0C0901001D090110199249394E1E0B3
:1025D000CE16D10409F0912C792066246394EF285B
:1025E00009F0612C7620871560F422E030E030930A
:1025F0000F0120930E016894EE24E1F8F12C81E0A4
:102600001CC0E0900E01F0900F0177247394F1E06C
:10261000EF16F10409F0712C792066246394232BC2
:1026200009F0612C7620871540F422E030E03093E9
:102630000D0120930C0181E011C08A2021E0012BC3
:1026400009F020E08222881548F422E030E030933F
:1026500017012093160110E081E01CC020911601A3
:102660003091170111E02130310509F010E0A1226D
:1026700001E0CD2B09F000E0A0228A1558F462E0B9
:1026800070E0709315016093140100E0C2E0D0E0A7
:1026900081E01AC0C0911401D091150101E0C13050
:1026A000D10509F000E01023AA24A394672B09F0B8
:1026B000A12C1A21811740F482E090E0909313013D
:1026C0008093120181E013C09B2161E0AB2B09F0E4
:1026D00060E09623891758F482E090E090931D0102
:1026E00080931C01A0E062E070E081E022C0609174
:1026F0001C0170911D01A1E06130710509F0A0E09D
:10270000BA2291E0452809F090E0B9228B1588F4AF
:10271000ECE0F1E082E090E097878687408151818C
:1027200091E04130510509F090E0E2E0F0E081E015
:102730004DC0E0911A01F0911B0191E0E130F105EB
:1027400009F090E09A23A1E0452B09F0A0E09A233C
:102750008917B0F4ACE0B1E082E090E01D969C9364
:102760008E931C974D915C91119750966D917C9131
:10277000519711E06130710509F010E081E041C02E
:1027800040910C0150910D0191E04130510509F04B
:1027900090E00923A1E0672B09F0A0E00A2380174D
:1027A000A8F4ACE0B1E082E090E051969C938E9367
:1027B000509718960D90BC91A02D91E0A130B105D5
:1027C00009F090E062E070E081E03EC060911C01A1
:1027D00070911D0111E06130710509F010E0912345
:1027E000A1E0CD2B09F0A0E09A23891750F482E0F4
:1027F00090E09093150180931401A2E0B0E081E095
:102800003FC0A0911401B091150191E0A130B10534
:1028100009F090E01923C1E0452B09F0C0E01C232A
:10282000811790F4ACE0B1E082E090E011969C93C7
:102830008E931C964D915C911D9791E0413051050E
:1028400009F090E081E035C0992141E0C091180184
:10285000D0911901CD2B09F040E09423891780F421
:10286000ACE0B1E082E090E01D969C938E931C97C3
:1028700018960D90BC91A02D42E050E081E032C04E
:10288000409118015091190191E04130510509F032
:1028900090E09922C1E0AB2B09F0C0E09C228915A1
:1028A00040F482E090E0909315018093140181E060
:1028B00027C0A0911401B0911501C1E0A130B1056C
:1028C00009F0C0E09C23C1E0CD2809F0C0E0C92395
:1028D0008C1740F482E090E09093110180931001F6
:1028E00081E020C091E0AB2B09F090E0891740F423
:1028F00082E090E0909315018093140181E020C064
:1029000091E0A0910C01B0910D01AB2B09F090E08A
:10291000891740F482E090E090930D0180930C01C0
:1029200081E020C091E0672B09F090E0891740F426
:1029300082E090E090931D0180931C0181E020C013
:1029400091E06091100170911101672B09F090E006
:10295000891740F482E090E0909311018093100178
:1029600081E020C091E0EF2809F090E0891740F461
:1029700082E090E090930F0180930E0181E01FC0F0
:1029800091E06091120170911301672B09F090E0C2
:10299000891740F482E090E0909313018093120134
:1029A00081E01AC091E0452B09F090E0891738F4D6
:1029B00082E090E0909319018093180119C091E092
:1029C000232B09F090E0891738F482E090E090938F
:1029D0001701809316010CC091E0EF2B09F090E0F5
:1029E000891730F482E090E090931B0180931A01E4
:1029F00081E0809300018091010181508093010169
:102A000090E00E94230D81C0882309F443C02097E1
:102A100009F47BC0CA30D10514F41C2F1650C730FE
:102A2000D10524F41C2F135002E001C003E0C43090
:102A3000D10514F41C2F01E0802F90E00197212F85
:102A400030E021503109DC01AA0FBB1FA80FB91FCC
:102A5000A20FB31FAA0FBB1FA45FBE4F4D915C9185
:102A60001197452B09F051C0FD0181E090E0918361
:102A700080831092000180910101815080930101B7
:102A800090E00E94230D9091000180911E01981703
:102A900028F03BC02223C9F12097B9F1CA30D105F3
:102AA0001CF41C2F165003E0C730D1051CF41C2F5A
:102AB000135002E0C430D10514F41C2F01E0E02FC4
:102AC000F0E03197812F90E00197DF01AA0FBB1F43
:102AD000AE0FBF1FA80FB91FAA0FBB1FA45FBE4F29
:102AE0002D913C911197232B81F4FD0182E090E020
:102AF0009183808381E08093000180910101815066
:102B00008093010190E00E94230DDF91CF911F91EE
:102B10000F91FF90EF90DF90CF90BF90AF909F907C
:102B20008F907F906F905F904F9008950F931F93B9
:102B3000CF93DF9360E070E080E090E00E94D316D6
:102B4000CAEED1E00AE215E0FE01849161E070E096
:102B500090E00E948C162196C017D107A9F7DF914B
:102B6000CF911F910F910895109208012FEF89E6E0
:102B700098E1215080409040E1F700C000000E94A1
:102B8000020A0E94F4158130910521F481E08093BE
:102B90001E0108958230910519F410921E010895C6
:102BA000039779F70E9496152FEF81E19AE721505C
:102BB00080409040E1F700C00000D6CF83E08AB9A2
:102BC0008FEF84B917B887B1876087B98CB58165F5
:102BD0008CBD7894089585B5836085BDEEE6F0E000
:102BE0008081816080830895409A8FE097E2019709
:102BF000F1F700C00000339922C0349922C0359902
:102C000022C04098419A8FE097E20197F1F700C007
:102C1000000033991AC034991AC035991AC04198E6
:102C2000429A8FE097E20197F1F700C000003399D4
:102C300012C0349912C0359912C04298089587E0A5
:102C4000089588E0089589E0089584E0089585E076
:102C5000089586E0089581E0089582E0089583E074
:102C600008951F920F920FB60F9211242F933F9346
:102C70004F935F936F937F938F939F93AF93BF9384
:102C8000EF93FF9380E090E00E94190E0E945B0B8F
:102C90000E94F415082E000C990B0E94190EFF914A
:102CA000EF91BF91AF919F918F917F916F915F91C4
:102CB0004F913F912F910F900FBE0F901F9018953D
:102CC0000E94DE150E94A6160E94EC160E94C609FC
:102CD0002FEF87EA91E6215080409040E1F700C055
:102CE00000000E94E4092FEF87EA91E6215080401E
:102CF0009040E1F700C000000E94B4152FEF84E37C
:102D00009CE0215080409040E1F700C000000E940C
:102D1000EC160E94EB15FFCF672B11F4589801C0F9
:102D2000589A59988EBD0DB407FEFDCF599A089553
:102D30005A9882E08A95F1F700C05A9A599A8FEC16
:102D400097E00197F1F700C0000008950E949816DF
:102D500060E070E081E290E00E948C1660E070E03C
:102D600089E090E00E948C1660E070E080EE90E0D8
:102D70000E948C1660E070E085E190E00E948C1665
:102D800060E070E086E090E00E948C1660E070E009
:102D900080E290E00E948C1660E070E08CE090E0B1
:102DA0000E948C160895CF93DF93EB0160E070E0F2
:102DB000805C9F4F0E948C1660E070E0CE018058CE
:102DC0009F4F0E948C168FE097E20197F1F700C0A9
:102DD0000000DF91CF910895CF93DF9360E070E022
:102DE00080E090E00E94D316C0E3D3E061E070E0A1
:102DF00080E090E00E948C162197C1F7DF91CF917F
:102E000008950F931F93CF93DF938C01000F111F31
:102E1000000F111F800F911FC0E0D0E08C01005AFD
:102E20001109F801EC0FFD1FE652FE4E849161E09E
:102E300070E090E00E948C162196C530D10589F78C
:102E400061E070E080E090E00E948C16DF91CF910D
:102E50001F910F910895AEE0B0E0E1E3F7E10C942B
:102E6000DA190D891E8986E08C831A8309838FEF16
:102E70009FE79E838D83AE01475E5F4F6F89788D9C
:102E8000CE0101960E944E172F813885F801E20F7E
:102E9000F31F10822E96E4E00C94F619ACE0B0E03B
:102EA000E4E5F7E10C94CC197C016B018A01FC018B
:102EB00017821682838181FFBDC1CE0101964C012C
:102EC000F7019381F60193FD859193FF81916F0145
:102ED000882309F4ABC1853239F493FD859193FFC2
:102EE00081916F01853229F4B70190E00E94361973
:102EF000E7CF512C312C20E02032A0F48B3269F046
:102F000030F4803259F0833269F420612CC08D3264
:102F100039F0803339F4216026C02260246023C058
:102F2000286021C027FD27C030ED380F3A3078F4F3
:102F300026FF06C0FAE05F9E300D1124532E13C009
:102F40008AE0389E300D1124332E20620CC08E3260
:102F500021F426FD6BC1206406C08C3611F4206874
:102F600002C0883641F4F60193FD859193FF81916B
:102F70006F018111C1CF982F9F7D9554933028F414
:102F80000C5F1F4FFFE3F9830DC0833631F08337A9
:102F900071F0833509F05BC022C0F801808189831C
:102FA0000E5F1F4F44244394512C540115C0380127
:102FB000F2E06F0E711CF801A080B18026FF03C003
:102FC000652D70E002C06FEF7FEFC5012C870E9476
:102FD0002B192C0183012C852F77222E17C0380145
:102FE000F2E06F0E711CF801A080B18026FF03C0D3
:102FF000652D70E002C06FEF7FEFC5012C870E9446
:1030000020192C012C852068222E830123FC1BC053
:10301000832D90E048165906B0F4B70180E290E0A5
:103020000E9436193A94F4CFF50127FC859127FECA
:1030300081915F01B70190E00E94361931103A94F6
:10304000F1E04F1A51084114510471F7E5C084367C
:1030500011F0893639F5F80127FF07C060817181C9
:10306000828193810C5F1F4F08C060817181072EA0
:10307000000C880B990B0E5F1F4F2F76722E97FF57
:1030800009C090958095709561957F4F8F4F9F4FA8
:103090002068722E2AE030E0A4010E946E19A82E4A
:1030A000A81844C0853729F42F7EB22E2AE030E0DC
:1030B00025C0F22FF97FBF2E8F36C1F018F4883566
:1030C00079F0B4C0803719F0883721F0AFC02F2FC6
:1030D0002061B22EB4FE0DC08B2D8460B82E09C0C5
:1030E00024FF0AC09F2F9660B92E06C028E030E06A
:1030F00005C020E130E002C020E132E0F801B7FE77
:1031000007C060817181828193810C5F1F4F06C06F
:103110006081718180E090E00E5F1F4FA4010E94EA
:103120006E19A82EA818FB2DFF777F2E76FE0BC0F8
:10313000372D3E7FA51450F474FE0AC072FC08C0FF
:10314000372D3E7E05C0BA2C372D03C0BA2C01C0E6
:10315000B52C34FF0DC0FE01EA0DF11D80818033D6
:1031600011F4397E09C032FF06C0B394B39404C091
:10317000832F867809F0B39433FD13C030FF06C067
:103180005A2CB31418F4530C5B18B32CB31468F412
:10319000B70180E290E03C870E943619B3943C85E9
:1031A000F5CFB31410F43B1801C0312C34FF12C01A
:1031B000B70180E390E03C870E9436193C8532FFDE
:1031C00017C031FD03C088E790E002C088E590E0B9
:1031D000B7010CC0832F867859F031FF02C08BE213
:1031E00001C080E237FD8DE2B70190E00E94361900
:1031F000A51438F4B70180E390E00E9436195A9480
:10320000F7CFAA94F401EA0DF11D8081B70190E097
:103210000E943619A110F5CF332009F451CEB70121
:1032200080E290E00E9436193A94F6CFF701868149
:10323000978102C08FEF9FEF2C96E2E10C94E81982
:10324000FC010590615070400110D8F78095909571
:103250008E0F9F1F0895FC01615070400190011076
:10326000D8F7809590958E0F9F1F08950F931F9309
:10327000CF93DF93FB01238121FD03C08FEF9FEFED
:1032800028C022FF16C0468157812481358142170C
:10329000530744F4A081B1819D012F5F3F4F3183DB
:1032A00020838C93268137812F5F3F4F378326837E
:1032B00010C0EB01092F182F0084F185E02D09952E
:1032C000892BE1F68E819F8101969F838E83812FCA
:1032D000902FDF91CF911F910F910895FA01AA27A6
:1032E000283051F1203181F1E8946F936E7F6E5F49
:1032F0007F4F8F4F9F4FAF4FB1E03ED0B4E03CD0F7
:10330000670F781F891F9A1FA11D680F791F8A1FD9
:10331000911DA11D6A0F711D811D911DA11D20D040
:1033200009F468943F912AE0269F11243019305DFA
:103330003193DEF6CF010895462F4770405D4193EB
:10334000B3E00FD0C9F7F6CF462F4F70405D4A3338
:1033500018F0495D31FD4052419302D0A9F7EACF00
:10336000B4E0A6959795879577956795BA95C9F72F
:1033700000976105710508959B01AC010A2E069422
:103380005795479537952795BA95C9F7620F731FDB
:10339000841F951FA01D08952F923F924F925F9218
:1033A0006F927F928F929F92AF92BF92CF92DF9255
:1033B000EF92FF920F931F93CF93DF93CDB7DEB7BA
:1033C000CA1BDB0B0FB6F894DEBF0FBECDBF09944E
:1033D0002A88398848885F846E847D848C849B84A5
:1033E000AA84B984C884DF80EE80FD800C811B81B3
:1033F000AA81B981CE0FD11D0FB6F894DEBF0FBEE2
:0A340000CDBFED010895F894FFCF51
:08340A000109252E32640000C7
:00000001FF
