:1000000006C920C91FC91EC91DC91CC91BC91AC9D7
:1000100019C938CD17C916C915C914C913C912C9C8
:1000200011C910C90FC90C0E0703C3E77E3C3C3E43
:10003000373331303030000406FFFF00000000305D
:10004000303F3F303000FFFF0000008080000000A4
:10005000FFFF000003FFFF0300FFFFE0C080000080
:10006000FFFF030F3E381E07071E383E0F03000038
:10007000303F3F30003F3F000103070E3F3FFFFF8F
:100080000303030307FEFC0000FFFFC3C3C3C3C396
:10009000FF7E0000F0FCCEC7C7CEFCF80000FFFFDB
:1000A0008000000000000080FFFF7F7F60606060D4
:1000B000703F1F00007F7F00000001077E78000076
:1000C0007F7F000000007F7F000000071F7C601C16
:1000D0001C607C1F0700FFFF8383838383FFFF0077
:1000E00006FFFF000098D8D8D8D8D8F8F00000F85C
:1000F000F800000000F8F800F0F898989898F8F0E8
:1001000000F8F83018181838303F3F01010101019C
:10011000010100303F3F30001F3F303030181F3F9B
:100120003000C1C3C7C6C6F67F1F000F1F3931316B
:10013000313130003F3F000000000000FE010101AE
:100140000101010101010101010101FE7F808080A7
:1001500080808080808080808080807FFE010D1D77
:100160003971E1C1C1E171391D0D01FE7F80B0B867
:100170009C8E878383878E9CB8B0807FFE01C1F1FF
:1001800039190D0D0D0D1939F1C101FE7F80838FD5
:100190009C98B0B0B0B0989C8F83807FFFFFFF7FAA
:1001A0007F3F1F0707070707070707070707070717
:1001B000070707078747870707C74747478707870F
:1001C0004747478707C7070707C7074747C747473F
:1001D000070707874747478707078747870707C7EF
:1001E000870787C707C7474747070707070707075F
:1001F00007070707070707070707071F3F7F7FFF57
:10020000FFFFFFFFFF0000000000000000000000F3
:100210000000000000000000001F0202021F001F7B
:100220001212120D000F1010100F000F1010100FEF
:100230000000001F00000000000F1012120E001F2F
:100240000202021F001F0001001F001F12121200F5
:10025000000000000000000000000000000000009E
:100260000000000000FFFFFFFFFFFF000000000094
:10027000003CC000C03C00E050507000F020101066
:1002800020002050509000E800E01010E000F01036
:1002900010E0000000404040000008FC00000000AA
:1002A00088040424D80008FC0000000000000000BE
:1002B000000000000000000000000000000000003E
:1002C0000000000000000000000000FFFFFFFFFF33
:1002D000FF000000000000F00809081000C0212104
:1002E000C100E12020C00040A1A1210020F9200090
:1002F0000101E040212000E10000E000C0202000DA
:1003000021F921000100C0A1A1E100C02121F900D3
:10031000004000000000000000000000000000009D
:1003200000000000000000000000000000000000CD
:1003300000FFFFFFFFFFFF00000000000021F202AE
:1003400002211011926201000320F0030022F20248
:10035000010000211212916003E0101010E102224E
:10036000F10001E2929090210202010001020202DA
:100370000001020203000001000000000000000074
:10038000000000000000000000000000000000006D
:1003900000000000000000FFFFFFFFFFFF00000063
:1003A000000000844724408204840403800480E425
:1003B0008704000407848004008406858404000305
:1003C00004040403000407E4000304E4048340205D
:1003D000408000E00000000000000000000000007D
:1003E000000000000000000000000000000000000D
:1003F00000000000000000000000000000FFFFFF00
:10040000FFFFFF0000000000000F0101010F0007C7
:100410000808070000070808040007080807000F7D
:1004200001000000000002020200000000010608B6
:100430000601000F0101010F000F0808080000006D
:1004400000000000000000000000000000000000AC
:10045000000000000000000000000000000000009C
:10046000000000FFFFFFFFFFFFFEFEFCF8E0E0E002
:10047000E0E0E0E0E0E0E0E0E0E0E0E0E0E0E0E07C
:10048000E0E0E0E0E0E0E0E0E0E0E0E0E0E0E0E06C
:10049000E0E0E0E0E0E0E0E0E0E0E0E0E0E0E0E05C
:1004A000E0E0E0E0E0E0E0E0E0E0E0E0E0E0E0E04C
:1004B000E0E0E0E0E0E0E0E0E0E0E0E0E0E0E0E03C
:1004C000E0E0E0E0E0F8FCFEFEFFFFFFFFFFFF7F63
:1004D0007F3F1F07070707070707070707070707E4
:1004E000070707070707070707070707070707079C
:1004F000070707070707070707070707070707078C
:10050000070707070707070707070707070707077B
:10051000070707070707070707070707070707076B
:1005200007070707070707070707071F3F7F7FFF23
:10053000FFFFFFFFFF0000000000000000000000C0
:1005400000000000000000000000000000000000AB
:10055000000000000000000000000000000000009B
:10056000000000000000000000000000000000008B
:10057000000000000000000000000000000000007B
:10058000000000000000000000000000000000006B
:100590000000000000FFFFFFFFFFFF000000000061
:1005A000000000000000000000000000000000004B
:1005B000000000000000000000000000000000003B
:1005C000000000000000000000000000000000002B
:1005D000000000000000000000000000000000001B
:1005E000000000000000000000000000000000000B
:1005F0000000000000000000000000FFFFFFFFFF00
:10060000FF000000000000000000000000000000EB
:1006100000000000000000000000000000000000DA
:1006200000000000000000000000000000000000CA
:1006300000000000000000000000000000000000BA
:1006400000000000000000000000000000000000AA
:10065000000000000000000000000000000000009A
:1006600000FFFFFFFFFFFF00000000000000000090
:10067000000000000000000000000000000000007A
:10068000000000000000000000000000000000006A
:10069000000000000000000000000000000000005A
:1006A000000000000000000000000000000000004A
:1006B000000000000000000000000000000000003A
:1006C00000000000000000FFFFFFFFFFFF00000030
:1006D000000000000000000000000000000000001A
:1006E000000000000000000000000000000000000A
:1006F00000000000000000000000000000000000FA
:1007000000000000000000000000000000000000E9
:1007100000000000000000000000000000000000D9
:1007200000000000000000000000000000FFFFFFCC
:10073000FFFFFF00000000000000000000000000BC
:1007400000000000000000000000000000000000A9
:100750000000000000000000000000000000000099
:100760000000000000000000000000000000000089
:100770000000000000000000000000000000000079
:100780000000000000000000000000000000000069
:10079000000000FFFFFFFFFFFFFEFEFCF8E0E0E0CF
:1007A000E0E0E0E0E0E0E0E0E0E0E0E0E0E0E0E049
:1007B000E0E0E0E0E0E0E0E0E0E0E0E0E0E0E0E039
:1007C000E0E0E0E0E0E0E0E0E0E0E0E0E0E0E0E029
:1007D000E0E0E0E0E0E0E0E0E0E0E0E0E0E0E0E019
:1007E000E0E0E0E0E0E0E0E0E0E0E0E0E0E0E0E009
:1007F000E0E0E0E0E0F8FCFEFEFFFFFFFFFFFF7F30
:100800007F3F1F07070707070707070707070707B0
:100810000707070707070707070707070707070768
:100820000707F7274727F707F79797979707F74798
:100830008707F707F7070707F707070707070707F8
:100840000707070707070707070707070707070738
:1008500007070707070707070707071F3F7F7FFFF0
:10086000FFFFFFFFFF00000000000000000000008D
:100870000000000000000000000000000000000078
:10088000000000000000000007000000070007044F
:10089000040404000700000107000304040403002B
:1008A0000000000000000000000000000000000048
:1008B0000000000000000000000000000000000038
:1008C0000000000000FFFFFFFFFFFF00000000002E
:1008D000000004FE000000001010100000001E6068
:1008E00080601E004C9292926400000000FE121282
:1008F000120C0082FE800068A8A8F080007880803A
:10090000F80070A8A8A81000F8100808100000004F
:1009100000000000000000000000000000000000D7
:100920000000000000000000000000FFFFFFFFFFCC
:10093000FF00000000000000808080000000000038
:100940000000000000800000008000008080800027
:100950000000000080808000000000000000000017
:100960000000000202020100000000000000008000
:100970000000000000000000000000000000000077
:100980000000000000000000000000000000000067
:1009900000FFFFFFFFFFFF000000000000213028E4
:1009A0002423000004040400000000071820180796
:1009B0000013242424190000001F20202011001CF3
:1009C00022221C003E023C023C00FE22221C009E11
:1009D000A0A07E00021F222010001C2A2A2A040048
:1009E0003E040202040000000000000000000000BD
:1009F00000000000000000FFFFFFFFFFFF000000FD
:100A000000000040202020C0000000000000000086
:100A100000804020408000E0808000000080800056
:100A200000800000800080E08000000000000000E6
:100A30008080800080808000000080800080000036
:100A40000080808000000000000000000000000026
:100A500000000000000000000000000000FFFFFF99
:100A6000FFFFFF0000000000000408080906000066
:100A7000010101000000000F0101010F000F080833
:100A8000070007080807000708080700000708080C
:100A900004000000002728281F000E0A0A0F080083
:100AA0000F000F000F00070A0A0A010000000000F3
:100AB0000000000000000000000000000000000036
:100AC000000000FFFFFFFFFFFFFEFEFCF8E0E0E09C
:100AD000E0E0E0E0E0E0E0E0E0E0E0E0E0E0E0E016
:100AE000E0E0E0E0E0E0E0E0E0E0E0E0E0E0E0E006
:100AF000E0E0E0E0E0E0E0E0E0E0E0E0E0E0E0E0F6
:100B0000E0E0E0E0E0E0E0E0E0E0E0E0E0E0E0E0E5
:100B1000E0E0E0E0E0E0E0E0E0E0E0E0E0E0E0E0D5
:100B2000E0E0E0E0E0F8FCFEFEFFFFFFFFFFFF7FFC
:100B30007F3F1F070707070707C7E7F7F7F7F7F72D
:100B4000F7F7F7F7F7F7F7F7F777777777777777B5
:100B50007777F7E78707070707070707F7F7F7F735
:100B60000707070707070707070707070707070715
:100B70000707070707070787C7E7F7F7F7777777C5
:100B8000373737373777F7F7F707071F3F7F7FFF8D
:100B9000FFFFFFFFFF000000000000000000000357
:100BA00003010101000000000000FFFFFFFFFF0044
:100BB0000000000000000000010101000000000032
:100BC0000000FEFEFEFE000000000000000000002D
:100BD0000000000000000000000000FEFFFFFF0317
:100BE0000100000000000000000000000000000004
:100BF0000000000000FFFFFFFFFFFF0000000000FB
:100C000000000000009C9CBCB8B8B8B8B8B8BCBC28
:100C1000BFBF9F8F878080808080808080000000A1
:100C20000000000000000000071F3F3F7870606078
:100C3000606070783C3C0000000000000000000094
:100C40000003070F1F3C3C3C383838302020303838
:100C5000383C3C1C1C000000000000FFFFFFFFFFB1
:100C6000FF00000000000000001E1F0F0F0F07070D
:100C700007070707FFFFFFFFFF0303030303030348
:100C800003030F0F0C000000F8FCFEFF0F07070323
:100C9000030303030307070FFFFEFCF80000000037
:100CA0000000000000E0F0F8FC3E1F0F0F070707F0
:100CB0000303030303070F0F0F00000000000000F1
:100CC00000FFFFFFFFFFFF0000000000000000E04A
:100CD000E0E0C0C0C0C0C0C0E0E0FFFFFF7F3F0059
:100CE00000000000000000000000000000007FFF86
:100CF000FFFF808080000000008080C0C0C0FF7FB8
:100D0000FFFF000000C0C0000000003F7FFFFFC0E9
:100D1000C0C0808080000000008080C0C0C0C000D3
:100D200000000000000000FFFFFFFFFFFF000000C9
:100D3000000000F0F87C7C7D3D3D3D3D3D3DFDFDEE
:100D4000FDFDFC1C1C1C1C1C1C1C1C1C7C7860005D
:100D50000000E0E0F0F079393B1B1B1B1B1B1B1B49
:100D60003B7BF1F1E0E00303030303030000008099
:100D7000C0E0E070713B3B3B1B1B1B1B1A1A3BFB8B
:100D8000FBFBFB01010000000000000000FFFFFF73
:100D9000FFFFFF0000000000000000000000000056
:100DA00000000000FFFFFFFFFF0000000000000048
:100DB0000000000000000000FFFFFFFF0000000037
:100DC0000000000000000000FFFFFFFF0000000027
:100DD00000000000007FFFFFFF3C3838383838380B
:100DE00038383818180F0F070700000000000000FF
:100DF000000000FFFFFFFFFFFFFEFEFCF8E0E0E762
:100E0000E7EFEEEEEEEEEEEEEFEFEFEFE7E3E1E031
:100E1000E0E0E0E0E0E0E0E0E0E0E0E0E0E0E3E7C8
:100E2000E7E7EEECECE8E8E8E8E8E8ECECEEE7E72A
:100E3000E3E3E0E0E0E0E0E0E0E0E0E0E1E3E3E79E
:100E4000E7EEEEECECECE8E8ECECECEEEFE7E7E0FC
:100E5000E0E0E0E0E0F8FCFEFEFFFFFFFFFFFF7FC9
:100E60007F3F1F070707070707070707E7E7E707AA
:100E70000707070707070707070707070707070702
:100E8000070707070707070707E7E7E7C707070792
:100E900007070707070707070707070707070707E2
:100EA00007070707070707070707070707070707D2
:100EB00007070707070707070707071F3F7F7FFF8A
:100EC000FFFFFFFFFF000000000000000000000027
:100ED000000000073FFFFCE00000000000000000F1
:100EE000000000000000000000000000E0FCFF1F08
:100EF00007073FFFF8E000000000000000000000CE
:100F000000000000000000000000000000000000E1
:100F100000000000000000000000000000000000D1
:100F20000000000000FFFFFFFFFFFF0000000000C7
:100F3000000000000000000000000001073FFFF873
:100F4000C00000000000000000000000000000E001
:100F5000FCFF3F07000000000001073FFFF8E00032
:100F60000000000000000000000000000000000081
:100F70000000000000000000000000000000000071
:100F80000000000000000000000000FFFFFFFFFF66
:100F9000FF00000000000000000000000000000052
:100FA00000000000010F7FFFF8C0000000000000FB
:100FB0000000E0F8FF3F1F1C1C1C1C1C1C1C1C1C00
:100FC0001C1C1C1F1FFFFCE0800000000000000034
:100FD0000000000000000000000000000000000011
:100FE0000000000000000000000000000000000001
:100FF00000FFFFFFFFFFFF000000000000000000F7
:1010000000000000000000000000000000010F7F51
:10101000FEF0C00000C0F8FF3F0701000000000024
:10102000000000000000000000000000071FFFFC9F
:10103000F080000000000000000000000000000040
:1010400000000000000000000000000000000000A0
:1010500000000000000000FFFFFFFFFFFF00000096
:101060000000000000000000000000000000000080
:10107000000000000000030F7F7E7F3F070100009B
:101080000000000000000000000000000000000060
:101090000000000000031F7F7C7070707070707023
:1010A0007070707070707070707070707070707040
:1010B00070700000000000000000000000FFFFFF53
:1010C000FFFFFF0000000000000000000000000023
:1010D00000000000000000000000000000FC2050A4
:1010E0008C00F00000F000F40070800080700000C0
:1010F00040404000088464241800F8040404F80008
:1011000008FC0000F8242424C800000000000000AF
:1011100000000000000000000000000000000000CF
:10112000000000FFFFFFFFFFFFFEFEFCF8E0E0E035
:10113000E0E0E0E0E0E0E0E0E0E0E0E0E0E0E0E0AF
:10114000E0E0E0E1E0E0E1E0E4E5E5E3E0E1E0E08B
:10115000E0E1E0E0E0E0E0E0E0E0E1E1E1E1E1E089
:10116000E0E1E1E1E0E0E1E1E1E0E0E1E1E1E0E076
:10117000E0E0E0E0E0E0E0E0E0E0E0E0E0E0E0E06F
:10118000E0E0E0E0E0F8FCFEFEFFFFFF0000000012
:101190000000005F00000007000700147F147F14A8
:1011A000242A7F2A122313086462364955225000EC
:1011B00005030000001C2241000041221C0014080D
:1011C0003E081408083E08080050300000080808CF
:1011D0000808006060000020100804023E41414100
:1011E0003E0004027F004261514946224141493696
:1011F000181412117F47454545393E494949320186
:10120000016119073649494936264949493E1124A1
:101210001FBECFE5D4E0DEBFCDBF10E0A0E6B0E05A
:10122000EEE2FEE102C005900D92AA37B107D9F7B0
:1012300020E0AAE7B0E001C01D92A53EB207E1F7A9
:101240003AD4F3C5DDC6EF92FF920F93FC0172838F
:10125000618343831582148226830783F186E086A7
:1012600010820F91FF90EF900895CF93DF93EC01E0
:10127000E981FA81808190E00B8002C09595879585
:101280000A94E2F780FF26C08C819D818436910507
:1012900040F401969D838C83892B89F181E08883BA
:1012A0002EC08436910561F48881843041F183E059
:1012B0008883E885F985309711F18F8109951FC0E2
:1012C00088818330E1F4E885F9853097C1F08F811A
:1012D000099515C08C819D8101978336910548F44D
:1012E00082E08883E885F985309739F08E81099509
:1012F00004C08881823009F018821D821C82DF912F
:10130000CF910895FC0180810895FC0160830895C8
:101310002FEF84E39CE0215080409040E1F700C033
:101320000000EEE7F0E087E890E01192E817F90797
:10133000E1F789E08093610081E080936000109282
:101340007A0008950F939BEA899F912D1124969519
:10135000492F50E0440F551F4F5F5F4F292F220F39
:10136000920F682F691B20E1629FB00111246F5C0E
:101370007F4FE82FF0E0E258FF4F808120E2829F0C
:10138000C001112402E020E1845C9E4F07D58091CA
:101390006000882339F028E043E064E186E390E0D0
:1013A000FDD407C002E028E043E064E186E290E07B
:1013B000F5D40F910895FF920F931F93CF93DF936E
:1013C00080917A00811183C08CEC94E0CBD481E0D1
:1013D00080937A007CC089911F9D912D1124969550
:1013E000492F50E0440F551F4F5F5F4F292F220FA9
:1013F000920F612F691B20E1629FB00111246F5C85
:101400007F4F20E2829FC001112402E020E1845C32
:101410009E4FC4D41F5F1930F1F661E070E085E0A3
:1014200090E053D480917D00CDEC8C9F812D1124D0
:1014300086958695869590E0C0966CD480917D00C7
:101440008C9F912D1124969596959695990F292FFD
:10145000220F220F920F891B90E0C0965BD480E28E
:1014600090E058D48DE290E055D480E290E052D4E0
:1014700080917C008C9F812D112486958695869580
:1014800090E0C09647D480917C008C9FC12D1124A0
:10149000C695C695C695CC0F9C2F990F990FC90F6D
:1014A0008C1B90E0C09636D480916000882339F080
:1014B00028E043E064E186E390E070D410C002E0ED
:1014C00028E043E064E186E290E068D408C0CEE71B
:1014D000D0E010E00F2EFBEAFF2EF02D7CCFDF9145
:1014E000CF911F910F91FF9008950F93CF93DF93AA
:1014F000EC0110927A0081E080937B0089B78E7FA7
:1015000089BFF4D38CEC94E02DD4209741F402E011
:101510002CE242E06EE18EE790E040D428C002E089
:1015200023E342E064E186ED90E038D4219761F452
:1015300028E042E060E586E390E030D480917D00D1
:101540008F5F80937D000CC002E028E042E060E500
:1015500086E290E023D480917C008F5F80937C00B2
:1015600002E02CE144E068E286E490E017D4D0DEAB
:101570002FEF83ED90E3215080409040E1F700C0D1
:101580000000B4D318DF89B7816089BFDF91CF91A4
:101590000F910895EF92FF920F931F93CF93DF93D4
:1015A0008530910594F14AC0EC91F0E0E258FF4F8C
:1015B0008081891320C01196EC911197F0E0E258D8
:1015C000FF4F8081891317C012968C911297E82FD4
:1015D000F0E0E258FF4F808189130DC0ECDE2FEF61
:1015E00084E39CE0215080409040E1F700C000007F
:1015F000C8017BDF04C01396CA17DB07A9F60F5F8B
:101600001F4F0330110531F409C07C0101E010E0E7
:10161000CAE7D0E0902FA2E6B0E0C6CF80917B0071
:10162000882329F010927A0010927B0007C0EF28DF
:1016300029F410927A0080E090E057DFDF91CF919B
:101640001F910F91FF90EF90089510927A008CEF08
:1016500097E088D38AE890E0A1D28AE890E0F2D2BD
:10166000082E000C990B009721F481E080938900EB
:1016700008958130910519F4109289000895029718
:1016800079F48CE991E06ED32FEF81E19AE7215054
:1016900080409040E1F700C000008CEF97E062D3FB
:1016A0008FE295E70197F1F700C00000D3CF8F924A
:1016B0009F92AF92BF92CF92DF92EF92FF920F93E1
:1016C0001F93CF93DF93EC019091600081E0892715
:1016D00020918900281708F067C1F0907E00A1E0F2
:1016E00002E0F012A0E0A0907F00B1E012E0A112B1
:1016F000B0E0E09080008A2F8B23A9F181E0E11017
:1017000080E0882381F127C09F01438150E0DA0106
:10171000A258BF4FFC90A92F82E0F812AB2DE9012F
:101720006C8170E0EB01C258DF4FA880B92FD2E086
:10173000AD12BB2DE9012D8130E0E901C258DF4F28
:10174000E88033968A2F8B23C1F0892FE1108B2DEF
:10175000882399F002C022E030E0F901E258FF4FFF
:1017600082E080835EC1E2E6F0E007E710E061E03E
:1017700070E040E050E091E0B12C892FD2E0ED1212
:101780008B2D292FA1102B2D282341F0AA2331F0D6
:10179000FB01E258FF4F82E0808343C1292FF11003
:1017A0002B2D822341F0BB2331F0FA01E258FF4F89
:1017B00082E0808336C1E017F10709F0A5CFB09031
:1017C0007E0051E0B51250E0F0907F0011E0F11280
:1017D00010E0E0908000852F812329F081E0E11066
:1017E00080E081112DC030E033C0CF01638170E013
:1017F000EB01C258DF4FB880522F01E0B0125A2DD2
:10180000DC0114964C91C42FD0E08E0102581F4F7A
:10181000D801FC90122FB1E0FB121A2DDC011596B5
:101820008C9190E0DC01A258BF4FEC903396D52EFE
:10183000D122422FE1104A2D4D213417B8F402C0B5
:1018400082E090E0FC01E258FF4F22E02083E7C0F5
:10185000E2E6F0E00F2EF7E78F2EF0E09F2EF02D5E
:10186000C1E0D0E060E070E021E0A12C822FB1E087
:10187000EB128A2D922FF1109A2D98239523391768
:1018800028F4C258DF4F82E08883C9C0922FB1107C
:101890009A2D89238123381730F4FB01E258FF4F3A
:1018A00082E08083BCC0E815F90509F09ECF81E095
:1018B00090918200911180E0381728F482E08093A3
:1018C000820031E018C081E090917E00911180E0AB
:1018D000381728F482E080937E0031E018C081E060
:1018E00090918600911180E0381728F482E080936F
:1018F000860031E018C081E090918400911180E071
:10190000381728F482E08093840031E018C081E029
:1019100090918100911180E0381728F482E0809343
:10192000810031E017C081E090917F00911180E04B
:10193000381728F482E080937F0031E016C081E000
:1019400090918000911180E0381720F482E080931C
:10195000800015C081E090918300911180E03817DC
:1019600020F482E0809383000AC081E0909185009A
:10197000911180E0381718F482E08093850081E0AF
:10198000809360008091610081508093610090E0BD
:1019900001DECFEFD4E30CE0C150D0400040E1F7CE
:1019A00000C0000008DD4BC0CF3F1FEFD10709F496
:1019B00046C09923B1F0FE01E258FF4F80818111AA
:1019C0003EC081E0FE01E258FF4F8083109260002C
:1019D0008091610081508093610090E0DBDD8C2F6D
:1019E000B1DC9091600080918900981740F5FE016C
:1019F000E258FF4F8081811122C0FE01E258FF4F63
:101A000082E0808381E0809360008091610081505A
:101A10008093610090E0BEDD8C2F94DC10C031E03B
:101A20005ECFB0907E0051E0B51250E0F0907F00A4
:101A300011E0F11210E0E090800031E009CFDF9179
:101A4000CF911F910F91FF90EF90DF90CF90BF90BB
:101A5000AF909F908F9008958FE081BB8FEF87BBF1
:101A600014BA84B3876084BB8DB180658DB9709AD8
:101A70007894089583B7836083BF89B7816089BFF5
:101A8000789408951F920F920FB60F9211248F939E
:101A900081E080938800809187008F5F809387002A
:101AA000809187008470809387008F910F900FBE84
:101AB0000F901F901895D0DFE3D018D18AE890E0FE
:101AC0003FD08CE59EE04ED12FEF87EA91E6215082
:101AD00080409040E1F700C000008CE29BE042D1E2
:101AE0002FEF87EA91E6215080409040E1F700C057
:101AF0000000ABDD2FEF81EE94E02150804090405C
:101B0000E1F700C00000F2D02FEF89E698E1215004
:101B100080409040E1F700C00000ACDF4CDC8091D9
:101B200088008823E1F3109288008AE890E036D09C
:101B30008AE890E087D0082E000C990BB8DDEFCF33
:101B4000CF92DF92EF92FF920F93CF93DF936C01CE
:101B50008FEFF60181936F01C0E0DBEACD9F812D0D
:101B600011248695982F990F890F4C2F481B4D5F94
:101B7000E12CF12C00E020E063E370E0C60163DBC0
:101B8000CF5FFAE0CF0ED11CC93041F7DF91CF9182
:101B90000F91FF90EF90DF90CF900895BF92CF927A
:101BA000DF92EF92FF920F931F93CF93DF936C011D
:101BB000EC01219610E0EE24E394F12C83B3887FAE
:101BC00083BB26E51202912D112417FD93959701F1
:101BD00002C0220F331F9A95E2F7822B85BB82E069
:101BE0008A95F1F700C0BC2E0D2FCE013EDBCE0151
:101BF00089DB823021F0CE0185DB833011F4F601E0
:101C000010838B2D902F7EDB823051F08B2D902F07
:101C100079DB833029F08B2D902F74DB843021F415
:101C200060E08B2D902F71DB1F5F2A96193031F603
:101C3000DF91CF911F910F91FF90EF90DF90CF90A8
:101C4000BF900895FC0180819FEF90830895672BDA
:101C500011F4909801C0909A91988FB9779BFECF1C
:101C6000919A0895929882E08A95F1F700C0929A2D
:101C7000919A8FEC97E00197F1F700C0000008956A
:101C8000F1DF60E070E081E290E0E1DF60E070E0D1
:101C900089E090E0DCDF60E070E080EE90E0D7DF8C
:101CA00060E070E085E190E0D2DF60E070E086E027
:101CB00090E0CDDF60E070E080E290E0C8DF60E0BF
:101CC00070E08CE090E0C3DF0895CF93DF93EB01E9
:101CD00060E070E080589F4FBADF60E070E0CE01B6
:101CE000805C9F4FB4DFDF91CF910895CF93DF9356
:101CF00060E070E080E090E0E8DF909AC0E3D3E03D
:101D000061E070E080E090E0A2DF2197C9F7DF9109
:101D1000CF9108950F931F93CF93DF938C01000F02
:101D2000111F000F111F800F911FC0E0D0E08C0128
:101D3000005A1109F801EC0FFD1FE457FE4E849183
:101D400061E070E090E083DF2196C530D10591F726
:101D500061E070E080E090E07ADFDF91CF911F9149
:101D60000F9108950F931F93CF93DF938C0160E041
:101D700070E080E090E0A9DFE801005C1C4FFE010C
:101D8000849161E070E090E062DF2196C017D10796
:101D9000B1F7DF91CF911F910F9108957F928F92AC
:101DA0009F92AF92BF92CF92DF92EF92FF920F93EA
:101DB0001F93CF93DF93EC01822E912C5C01029F45
:101DC000A00CB11C11248A159B050CF5712CC42E96
:101DD000D12CE62EF12CB601670D711DC70175DF00
:101DE00084010C0F1D1FC017D10764F4FE018491FC
:101DF00061E070E0082E000C990B29DF2196C017D6
:101E0000D107A4F37394E8010A151B0524F3DF91AD
:101E1000CF911F910F91FF90EF90DF90CF90BF90E7
:0E1E2000AF909F908F907F900895F894FFCF21
:101E2E000109000102030405060708000306010468
:0A1E3E00070205080004080204066C
:00000001FF
